:100000000C9458040C9480040C9480040C94800488
:100010000C9480040C9480040C9480040C94800450
:100020000C9480040C9480040C9480040C94800440
:100030000C9480040C9480040C9480040C94800430
:100040000C94DB090C9480040C94A9090C9483098A
:100050000C9480040C9480040C9480040C94800410
:100060000C94250A0C948004000000002500280050
:100070002B00040404040404040402020202020229
:10008000030303030303010204081020408001025C
:1000900004081020010204081020000000080002DB
:1000A0000100000304070000000000000000000041
:1000B000102120423063408450A560C670E781085B
:1000C0009129A14AB16BC18CD1ADE1CEF1EF1231D2
:1000D00002103273225252B5429472F762D69339AB
:1000E0008318B37BA35AD3BDC39CF3FFE3DE246222
:1000F00034430420140164E674C744A45485A56AFB
:10010000B54B85289509E5EEF5CFC5ACD58D3653B1
:1001100026721611063076D766F6569546B4B75B4A
:10012000A77A97198738F7DFE7FED79DC7BC48C481
:1001300058E5688678A70840186128023823C9CC9A
:10014000D9EDE98EF9AF89489969A90AB92B5AF511
:100150004AD47AB76A961A710A503A332A12DBFDEA
:10016000CBDCFBBFEB9E9B798B58BB3BAB1A6CA6E1
:100170007C874CE45CC52C223C030C601C41EDAE3A
:10018000FD8FCDECDDCDAD2ABD0B8D689D497E97F1
:100190006EB65ED54EF43E132E321E510E70FF9F8A
:1001A000EFBEDFDDCFFCBF1BAF3A9F598F78918840
:1001B00081A9B1CAA1EBD10CC12DF14EE16F108024
:1001C00000A130C220E3500440257046606783B927
:1001D0009398A3FBB3DAC33DD31CE37FF35E02B174
:1001E000129022F332D24235521462777256B5EA37
:1001F000A5CB95A88589F56EE54FD52CC50D34E2C4
:1002000024C314A004817466644754244405A7DB06
:10021000B7FA879997B8E75FF77EC71DD73C26D313
:1002200036F2069116B06657767646155634D94C96
:10023000C96DF90EE92F99C889E9B98AA9AB584463
:1002400048657806682718C008E1388228A3CB7D66
:10025000DB5CEB3FFB1E8BF99BD8ABBBBB9A4A75B3
:100260005A546A377A160AF11AD02AB33A92FD2EF6
:10027000ED0FDD6CCD4DBDAAAD8B9DE88DC97C2603
:100280006C075C644C453CA22C831CE00CC1EF1F46
:10029000FF3ECF5DDF7CAF9BBFBA8FD99FF86E1753
:1002A0007E364E555E742E933EB20ED11EF0000087
:1002B000333166625553CCC4FFF5AAA6999789A934
:1002C000BA98EFCBDCFA456D765C230F103E0373D2
:1002D000304265115620CFB7FC86A9D59AE48ADA58
:1002E000B9EBECB8DF89461E752F207C134D06E66E
:1002F00035D7608453B5CA22F913AC409F718F4F34
:10030000BC7EE92DDA1C438B70BA25E916D8059519
:1003100036A463F750C6C951FA60AF339C028C3CD7
:10032000BF0DEA5ED96F40F873C9269A15AB0DCCA4
:100330003EFD6BAE589FC108F239A76A945B846595
:10034000B754E207D13648A17B902EC31DF20EBFF1
:100350003D8E68DD5BECC27BF14AA41997288716B5
:10036000B427E174D2454BD278E32DB01E810B2A1D
:10037000381B6D485E79C7EEF4DFA18C92BD828395
:10038000B1B2E4E1D7D04E477D7628251B14085939
:100390003B686E3B5D0AC49DF7ACA2FF91CE81F035
:1003A000B2C1E792D4A34D347E052B5618671B9833
:1003B00028A97DFA4ECBD75CE46DB13E820F923115
:1003C000A100F453C7625EF56DC438970BA618EB15
:1003D0002BDA7E894DB8D42FE71EB24D817C914235
:1003E000A273F720C4115D866EB73BE408D51D7E6D
:1003F0002E4F7B1C482DD1BAE28BB7D884E994D715
:10040000A7E6F2B5C18458136B223E710D401E0D54
:100410002D3C786F4B5ED2C9E1F8B4AB879A97A4B4
:10042000A495F1C6C2F75B6068513D020E331654C5
:10043000256570364307DA90E9A1BCF28FC39FFDB2
:10044000ACCCF99FCAAE53396008355B066A1527F4
:10045000261673454074D9E3EAD2BF818CB09C8ED6
:10046000AFBFFAECC9DD504A637B3628051910B2DC
:10047000238376D045E1DC76EF47BA148925991BB2
:10048000AA2AFF79CC4855DF66EE33BD008C13C134
:1004900020F075A34692DF05EC34B9678A569A6856
:1004A000A959FC0ACF3B56AC659D30CE03FF000036
:1004B00037306E605950DCC0EBF0B2A08590A9A136
:1004C0009E91C7C1F0F1756142511B012C3143630C
:1004D00074532D031A339FA3A893F1C3C6F3EAC242
:1004E000DDF284A2B3923602013258626F5286C6A0
:1004F000B1F6E8A6DF965A066D36346603562F67C6
:10050000185741077637F3A7C4979DC7AAF7C5A523
:10051000F295ABC59CF519652E55770540356C04F1
:100520005B3402643554B0C487F4DEA4E9941DAD95
:100530002A9D73CD44FDC16DF65DAF0D983DB40CA1
:10054000833CDA6CED5C68CC5FFC06AC319C5ECE23
:1005500069FE30AE079E820EB53EEC6EDB5EF76F35
:10056000C05F990FAE3F2BAF1C9F45CF72FF9B6BB7
:10057000AC5BF50BC23B47AB709B29CB1EFB32CA71
:1005800005FA5CAA6B9AEE0AD93A806AB75AD8087B
:10059000EF38B668815804C833F86AA85D9871A925
:1005A00046991FC928F9AD699A59C309F4393B5ACC
:1005B0000C6A553A620AE79AD0AA89FABECA92FB37
:1005C000A5CBFC9BCBAB4E3B790B205B176B7839F3
:1005D0004F0916592169A4F993C9CA99FDA9D1985F
:1005E000E6A8BFF888C80D583A6863385408BD9C1F
:1005F0008AACD3FCE4CC615C566C0F3C380C143DE7
:10060000230D7A5D4D6DC8FDFFCDA69D91ADFEFF1A
:10061000C9CF909FA7AF223F150F4C5F7B6F575EEE
:10062000606E393E0E0E8B9EBCAEE5FED2CE26F736
:1006300011C748977FA7FA37CD079457A3678F56FE
:10064000B866E136D606539664A63DF60AC66594AA
:1006500052A40BF43CC4B9548E64D734E004CC35B6
:10066000FB05A255956510F527C57E9549A5A031D6
:100670009701CE51F9617CF14BC1129125A10990EE
:100680003EA067F050C0D550E260BB308C00E35212
:10069000D4628D32BA023F9208A251F266C24AF386
:1006A0007DC3249313A39633A103F853CF630000B3
:1006B00076B4ED689BDCCAF1BC452799512D85C302
:1006C000F37768AB1E1F4F323986A25AD4EE1BA7B0
:1006D0006D13F6CF807BD156A7E23C3E4A8A9E64DA
:1006E000E8D0730C05B854952221B9FDCF49374E97
:1006F00041FADA26AC92FDBF8B0B10D76663B28D40
:10070000C4395FE52951787C0EC89514E3A02CE923
:100710005A5DC181B735E61890AC0B707DC4A92A2B
:10072000DF9E444232F663DB156F8EB3F8076E9C92
:10073000182883F4F540A46DD2D949053FB1EB5F89
:100740009DEB0637708321AE571ACCC6BA72753B43
:10075000038F9853EEE7BFCAC97E52A22416F0F861
:10076000864C1D906B243A094CBDD761A1D559D256
:100770002F66B4BAC20E9323E5977E4B08FFDC11B7
:10078000AAA5317947CD16E06054FB888D3C4275AF
:1007900034C1AF1DD9A98884FE3065EC1358C7B6A3
:1007A000B1022ADE5C6A0D477BF3E02F969BDD38B1
:1007B000AB8C305046E417C9617DFAA18C1558FB0B
:1007C0002E4FB593C327920AE4BE7F6209D6C69F17
:1007D000B02B2BF75D430C6E7ADAE10697B2435CDF
:1007E00035E8AE34D88089ADFF1964C51271EA7658
:1007F0009CC2071E71AA20875633CDEFBB5B6FB535
:10080000190182DDF469A544D3F0482C3E98F1D15A
:1008100087651CB96A0D3B204D94D648A0FC741224
:1008200002A6997AEFCEBEE3C857538B253FB3A4F7
:10083000C5105ECC287879550FE1943DE289366782
:1008400040D3DB0FADBBFC968A2211FE674AA8039A
:10085000DEB7456B33DF62F214468F9AF92E2DC056
:100860005B74C0A8B61CE73191850A597CED84EA17
:10087000F25E69821F364E1B38AFA373D5C70129BC
:10088000779DEC419AF5CBD8BD6C26B050049F4DB6
:10089000E9F97225049155BC2308B8D4CE601A8EAC
:1008A0006C3AF7E68152D07FA6CB3D174BA3400BA5
:1008B00011241FBECFEFD8E0DEBFCDBF22E0AEE3F4
:1008C000B1E001C01D92AB39B207E1F711E0A0E041
:1008D000B1E0E4E7FCE102C005900D92AE33B10750
:1008E000D9F714E0C8E5D4E004C02197FE010E94C6
:1008F000320EC735D107C9F70E94880B0C94380E09
:100900000C940000AF92BF92CF92DF92EF92FF92D1
:100910000F931F93CF93DF936C017B018B01040F27
:10092000151FEB015E01AE18BF08C017D10759F0C3
:100930006991D601ED91FC910190F081E02DC60105
:100940000995892B79F7C501DF91CF911F910F91FF
:10095000FF90EF90DF90CF90BF90AF900895FC0193
:10096000538D448D252F30E0842F90E0821B930B14
:10097000541710F0CF96089501970895FC01918DBA
:10098000828D981761F0A28DAE0FBF2FB11D5D96BD
:100990008C91928D9F5F9F73928F90E008958FEF5F
:1009A0009FEF08958F929F92AF92BF92CF92DF9266
:1009B000EF92FF920F931F93CF93DF93DC01129678
:1009C0002D913C91EC0101E010E0232B31F590E0FA
:1009D00080E0DF91CF911F910F91FF90EF90DF901A
:1009E000CF90BF90AF909F908F90089521153105C3
:1009F000A1F0EC80FD80A701415051095D834C833B
:100A0000FB01E40FF51FE0810E2E000CFF0BE81731
:100A1000F90709F442C0452B61F72FB7F89480918C
:100A2000E0019091E101A091E201B091E3012FBFBB
:100A30008093EC019093ED01A093EE01B093EF0150
:100A400084EE91E00E94BE0497FF49C02FB7F8944E
:100A50008091E0019091E101A091E201B091E30168
:100A60002FBF4091EC015091ED016091EE0170912A
:100A7000EF01841B950BA60BB70B4091E801509139
:100A8000E9016091EA017091EB0184179507A607CF
:100A9000B707B0F28FEF9FEF9CCF41155105E1F002
:100AA0006B01D901A41BB50B4D01860E971EF0E01A
:100AB000E0E0D601AD906D01D401BD904D01AB10C9
:100AC00004C03196E417F507A0F3E417F50709F021
:100AD00090CFFD82EC82A1CF1D830C839ECF6881D5
:100AE00079812C813D81FB01E20FF31F4081042EAF
:100AF000000C550B8417950709F078CF2F5F3F4FF7
:100B00003D832C838A819B812817390709F085CF83
:100B10005ECFFC01918D828D981731F0828DE80FA8
:100B2000F11D858D90E008958FEF9FEF08952FB709
:100B3000F8948091E0019091E101A091E201B091DF
:100B4000E3012FBF8093EC019093ED01A093EE01A0
:100B5000B093EF0184EE91E00E94890597FF26C0D3
:100B60002FB7F8948091E0019091E101A091E2010A
:100B7000B091E3012FBF4091EC015091ED016091E4
:100B8000EE017091EF01841B950BA60BB70B409102
:100B9000E8015091E9016091EA017091EB0184173D
:100BA0009507A607B707B0F28FEF9FEF0895FC01F6
:100BB000918D228D892F90E0805C9F4F821B91093F
:100BC0008F739927089584EE91E00E94D70521E064
:100BD000892B09F420E0822F089580E090E0892B92
:100BE00029F00E94E30581110C9400000895FC0196
:100BF000A48DA80FB92FB11DA35ABF4F2C91848D7E
:100C000090E001968F739927848FA689B7892C93DA
:100C1000A089B1898C91837080648C93938D848D2D
:100C2000981306C00288F389E02D80818F7D808330
:100C30000895EF92FF920F931F93CF93DF93EC01F0
:100C400081E0888F9B8D8C8D98131AC0E889F98973
:100C5000808185FF15C09FB7F894EE89FF89608376
:100C6000E889F98980818370806480839FBF81E0F7
:100C700090E0DF91CF911F910F91FF90EF90089539
:100C8000F62E0B8D10E00F5F1F4F0F731127E02E14
:100C90008C8D8E110CC00FB607FCFACFE889F9894C
:100CA000808185FFF5CFCE010E94F705F1CFEB8D56
:100CB000EC0FFD2FF11DE35AFF4FF0829FB7F89420
:100CC0000B8FEA89FB8980818062CFCFCF93DF933E
:100CD000EC01888D8823B9F0AA89BB89E889F98954
:100CE0008C9185FD03C0808186FD0DC00FB607FC89
:100CF000F7CF8C9185FFF2CF808185FFEDCFCE01BC
:100D00000E94F705E9CFDF91CF91089590E0FC01B3
:100D1000E656FF4F2491FC01EA57FF4F3491FC0146
:100D2000EE58FF4FE491EE23C9F0222339F023302F
:100D300001F1A8F4213019F1223029F1F0E0EE0F91
:100D4000FF1FE859FF4FA591B4918FB7F894EC912C
:100D5000611126C030953E233C938FBF0895273004
:100D6000A9F02830C9F0243049F7809180008F7DA8
:100D700003C0809180008F7780938000DFCF84B59F
:100D80008F7784BDDBCF84B58F7DFBCF8091B000A2
:100D90008F778093B000D2CF8091B0008F7DF9CF54
:100DA0003E2BDACF3FB7F8948091D4019091D501D2
:100DB000A091D601B091D70126B5A89B05C02F3FC1
:100DC00019F00196A11DB11D3FBFBA2FA92F982F71
:100DD0008827BC01CD01620F711D811D911D42E06C
:100DE000660F771F881F991F4A95D1F708958F9234
:100DF0009F92AF92BF92CF92DF92EF92FF924B0100
:100E00005C010E94D2066B017C010E94D2066C1923
:100E10007D098E099F09683E734081059105A8F3FD
:100E200021E0821A9108A108B10888EEC80E83E07B
:100E3000D81EE11CF11C81149104A104B10429F70E
:100E4000FF90EF90DF90CF90BF90AF909F908F90EA
:100E5000089508951F93CF93DF93C1E0C0933F019E
:100E6000882399F1D091B8001091BA008091BC000C
:100E70008A7B8093BC0060E082E10E94860660E08D
:100E800083E10E9486061092A901C093A8011092E6
:100E9000830161E082E10E94860661E083E10E94B5
:100EA00086068091B9008E7F8093B9008091B90049
:100EB0008D7F8093B90088E48093B80085E48093A7
:100EC000BC001093BA00D093B800DF91CF911F916E
:100ED000089520916001260F3327331F21323105F9
:100EE000ECF42091A901FC0190E080E0243069F04D
:100EF00082E00895A09160012191AC01405C5E4FB9
:100F0000A40FB52FB11D2C930196861798F38091ED
:100F10006001680F6093600180E0089581E00895AA
:100F200008958FEF9FEF08958FEF9FEF08958091C1
:100F30003E0190E09195819591090895CF92DF92BD
:100F4000EF92FF920F931F93CF93DF937C01CB011E
:100F50008A012091AF01222389F0EB016B01C40EBD
:100F6000D51ECC15DD0569F06991D701ED91FC9195
:100F70000190F081E02DC7010995F3CF642F0E9405
:100F80006907C801DF91CF911F910F91FF90EF90FA
:100F9000DF90CF900895CF93DF931F92CDB7DEB748
:100FA00069832091AF012223F9F02091D2012032F0
:100FB00058F021E030E0FC013383228390E080E0B0
:100FC0000F90DF91CF9108958091B001E82FF0E06C
:100FD000EF54FE4F998190838F5F8093B00180938F
:100FE000D20181E090E0ECCF61E0CE0101960E9459
:100FF0006907F7CFCF92DF92EF92FF920F931F9383
:10100000CF93DF93FC01C48121E02093AF01C09313
:10101000D1011092B0011092D2018385682B81E832
:1010200092E00E94CB07D091D201D13208F092C059
:101030000E94D2066B017C018091A901811165C0DB
:1010400082E08093A90181E08093A8018FEF8093D3
:10105000A7011092A601D093A501A1EBB1E0E5E8AC
:10106000F1E080E0D81385C0109284018091840162
:10107000CC0FC82BC093840180918301813009F08B
:101080007CC0109283010E94D2066B017C0180918A
:1010900084018093BB008091AB019091AC01A09141
:1010A000AD01B091AE01892B8A2B8B2B99F00E9458
:1010B000D2060091AB011091AC012091AD013091AD
:1010C000AE016C197D098E099F09061717072807BD
:1010D0003907E0F18091BC0083FDD9CF85EC809386
:1010E000BC000E94D2066B017C018091A901823074
:1010F00009F445C08091A7018F3F61F18091A7015C
:10110000803241F18091A70125C08091AB0190917F
:10111000AC01A091AD01B091AE01892B8A2B8B2B34
:1011200009F48ACF0E94D2060091AB011091AC0164
:101130002091AD013091AE016C197D098E099F0996
:10114000061717072807390708F076CF8091AA01FC
:101150000E942A071092B0011092D2011092AF01A2
:10116000DF91CF911F910F91FF90EF90DF90CF9083
:1011700008959D9191938F5F75CF85EEB0CF80914B
:10118000AB019091AC01A091AD01B091AE01892B62
:101190008A2B8B2B09F4A9CF0E94D2060091AB01B8
:1011A0001091AC012091AD013091AE016C197D0917
:1011B0008E099F09061717072807390708F095CFEA
:1011C000C5CF90E080E008950F931F93CF938C01DB
:1011D000C62F0E94FA076C2F6460C8010E94FA07AC
:1011E0006C2F6B7FC8010E94FA0783EC90E0019797
:1011F000F1F7CF911F910F9108950F931F93CF9304
:10120000DF938C01D62FC42F607F642B0E94E408EB
:1012100080E1D89FB00111246C2BC801DF91CF91E0
:101220001F910F910C94E408CF93DF93CDB7DEB7F5
:1012300028970FB6F894DEBF0FBECDBF98E0E0E070
:10124000F1E0DE01119601900D929A95E1F79091EF
:101250009502981708F48FEF90E0880F991F21E00E
:1012600030E02C0F3D1F820F931FFC0160816068EE
:1012700040E08DE892E028960FB6F894DEBF0FBEEE
:10128000CDBFDF91CF910C94FD0841E00E94FD0895
:1012900081E090E0089585ED8093BC008091AB01E2
:1012A0009091AC01A091AD01B091AE010796A11D46
:1012B000B11D23E0B695A795979587952A95D1F707
:1012C0002091BC0024FD03C01092A9010895409113
:1012D000AB015091AC016091AD017091AE01452B15
:1012E000462B472B69F30097A105B10541F025E393
:1012F0002A95F1F700000197A109B109E1CF80918A
:10130000AA010C942A071F920F920FB60F92112474
:101310002F933F934F935F936F937F938F939F93FD
:10132000AF93BF93EF93FF9384EE91E00E94F70594
:10133000FF91EF91BF91AF919F918F917F916F91AD
:101340005F914F913F912F910F900FBE0F901F9083
:1013500018951F920F920FB60F9211242F938F930F
:101360009F93EF93FF93E091F401F091F501808159
:10137000E091FA01F091FB0182FD1BC09081809108
:10138000FD018F5F8F732091FE01821741F0E09184
:10139000FD01F0E0EC51FE4F958F8093FD01FF9130
:1013A000EF919F918F912F910F900FBE0F901F90F3
:1013B00018958081F4CF1F920F920FB60F921124CF
:1013C0002F933F938F939F93AF93BF938091E001AF
:1013D0009091E101A091E201B091E3013091D3013C
:1013E00023E0230F2D3758F50196A11DB11D209341
:1013F000D3018093E0019093E101A093E201B093C7
:10140000E3018091D4019091D501A091D601B091D2
:10141000D7010196A11DB11D8093D4019093D501F0
:10142000A093D601B093D701BF91AF919F918F91B7
:101430003F912F910F900FBE0F901F90189526E8A7
:10144000230F0296A11DB11DD2CF1F920F920FB68E
:101450000F9211242F933F934F935F936F937F933A
:101460008F939F93AF93BF93EF93FF938091B900B6
:10147000887F803609F44AC0F0F5883209F4A5C0A7
:1014800018F5803109F499C0B8F4882309F4F5C03F
:10149000883009F492C0FF91EF91BF91AF919F9175
:1014A0008F917F916F915F914F913F912F910F900D
:1014B0000FBE0F901F901895883109F486C08032B6
:1014C00051F78093A70114C0803409F49BC040F405
:1014D0008033B9F38833F9F68093A70185ECAEC069
:1014E000803509F483C0883509F494C0883499F6AE
:1014F0000E944B09D0CF883909F48AC038F5883763
:1015000029F050F4883611F0803729F683E0809373
:10151000A9011092820155C0883809F479C0803938
:1015200019F0803809F0B7CF80918201803208F03D
:101530006FC0E091820181E08E0F809382018091E3
:10154000BB00F0E0EE59FE4F80833BC0803B39F09A
:10155000D0F4803A09F477C0883A09F09CCF84E04F
:101560008093A9011092610110926001F0E0E0E027
:1015700009958091600181110FC081E08093600125
:101580001092400109C0803C09F4A8CF883C09F4BE
:10159000A5CF883B09F07FCFE091610181E08E0FFC
:1015A00080936101F0E0E05CFE4F80818093BB009E
:1015B000909161018091600129C0809184018093A4
:1015C000BB0085EC8093BC0066CF9091A601809112
:1015D000A501981758F5E091A60181E08E0F809340
:1015E000A601F0E0EB57FE4F8081E9CFE091A60124
:1015F00081E08E0F8093A6018091BB00F0E0EB5755
:10160000FE4F80839091A6018091A5019817C8F2A2
:1016100085E8D8CFE091A60181E08E0F8093A601E6
:101620008091BB00F0E0EB57FE4F80838091A801D2
:1016300081115ECF81E08093830184EA8093BC00B6
:101640001092A90128CF85EC8093BC001092A901CB
:1016500080918201803230F4E0918201F0E0EE5915
:10166000FE4F10826091820170E082E691E0F0E02E
:10167000E0E00995109282010ECF1092A70138CFB9
:10168000E4EEF1E01382128288EE93E0A0E0B0E095
:1016900084839583A683B7832CE031E03183208354
:1016A00025EC30E03587248724EC30E03787268727
:1016B00020EC30E0318B208B21EC30E0338B228B1F
:1016C00022EC30E0358B248B26EC30E0378B268BF8
:1016D000118E128E138E148EE1E8F2E013821282C4
:1016E00084839583A683B7838EE191E09183808381
:1016F000EDE8F2E01382128280E391E0918380832F
:1017000087E2848384E1818784E082871386089559
:10171000CF93DF93CDB7DEB7A3970FB6F894DEBFB4
:101720000FBECDBF789484B5826084BD84B58160DE
:1017300084BD85B5826085BD85B5816085BD80919C
:101740006E00816080936E00109281008091810014
:10175000826080938100809181008160809381000C
:10176000809180008160809380008091B1008460CE
:101770008093B1008091B00081608093B00080912F
:101780007A00846080937A0080917A0082608093EE
:101790007A0080917A00816080937A0080917A004B
:1017A000806880937A001092C100E091F401F0917A
:1017B000F50162E0F62EF082E091F001F091F10186
:1017C0001082E091F201F091F3018FEC808310928E
:1017D000FC01E091F801F091F90186E08083E0914D
:1017E000F601F091F701808180618083E091F6013C
:1017F000F091F701808188608083E091F601F0919B
:10180000F701808180688083E091F601F091F70113
:1018100080818F7D80838091920288608093920284
:10182000F092950262E370E080E090E00E94F7069B
:10183000609198028DE892E00E94FA0768EE73E0EA
:1018400080E090E00E94F70660E38DE892E00E945D
:10185000E4080BE416E4C8010197F1F760E38DE8B2
:1018600092E00E94E408C8010197F1F760E38DE877
:1018700092E00E94E40883E592E00197F1F760E2CC
:101880008DE892E00E94E40860919202606240E07C
:101890008DE892E00E94FD0884E08093930240E08E
:1018A0006CE08DE892E00E94FD0840E061E08DE888
:1018B00092E00E94FD080BE31FE1C8010197F1F7D8
:1018C000F092940240E066E08DE892E00E94FD080C
:1018D00040E062E08DE892E00E94FD08C8010197B7
:1018E000F1F770E1472E512C612C712C22242394A6
:1018F000312C84EE91E00E94D705181619060CF0E1
:1019000076C089E68BA31E821D82A3E2B0E0AC0FF5
:10191000BD1FBA83A9833C822B82CE0101960E940F
:10192000D204892B09F063C00E949705FC0197FD42
:1019300072C08D32910521F0C0970A9708F064C0FB
:10194000C12CD12C760110E0E130F105D9F0ED3257
:10195000F10509F45EC0CF01C0970A9798F4AAE098
:10196000B0E0A70196010E94D70D6F01FF0FEE08AE
:10197000FF08C60ED71EE81EF91EB0E3CB1AD10829
:10198000E108F10884EE91E00E94BE040E949705F0
:10199000FC01C0970A97C0F2E130F105A9F21123CA
:1019A00041F0F094E094D094C094C11CD11CE11C8F
:1019B000F11CC092DC01D092DD01E092DE01F092D8
:1019C000DF01E6E6EAA31E821D8282E290E08C0F30
:1019D0009D1F9A8389833C822B82CE0101960E94AF
:1019E000D2045CED852E51E0952E892BC9F0E0E004
:1019F000F0E0EF2B09F47DCF0E94E305882309F482
:101A000078CF0E94000075CF84EE91E00E94BE0462
:101A10008BCF11E0B7CFC12CD12C7601CACF4801B2
:101A2000C701B601A30192010E94F10DA62ECA01C1
:101A3000B901A30192010E94F10DB62EC701B601B2
:101A400020E031E040E050E00E94F10D69017A01B0
:101A5000B29440EFB422AB0CD401AE928D01E8ED0C
:101A6000F1E0EA17FB07D9F6C092DC01D092DD0164
:101A7000E092DE01F092DF0180E00E941409F3E0C1
:101A80008F0E911C38EDE32E31E0F32ED7018D91AE
:101A90007D0190E0B0E0A0E019A2FE01B196AC019A
:101AA000BD014F7055276627772724E0B695A79587
:101AB000979587952A95D1F74A300CF03CC0405D48
:101AC00042930097A105B10551F7309769F0DF0106
:101AD0000D900020E9F71197AD014E1B5F0BBF0180
:101AE0008DE892E00E9482048E149F0479F6809122
:101AF000DB018F5F8093DB0190E080E024E030E049
:101B0000F801A80143705527452BB9F4200F311F68
:101B10002017310739F1492F5527D801ED918D0153
:101B2000F0E0E827EE0FFF1FE255FF4F85919491FB
:101B300084279527EDCF495CC3CF2115310591F05E
:101B4000492F55270F5F1F4FE081F0E0E827EE0F88
:101B5000FF1FE255FF4F85919491842795272150CF
:101B60003109CECF90939A0280939902B0E0A0E021
:101B70004427582F692F7A2F66277727892F9A2F86
:101B8000AB2FBB27842B952BA62BB72B892B8A2B0E
:101B90008B2B09F02CCF81E00E94140944E050E027
:101BA00068E371E08DE892E00E94820420CF0E94F9
:101BB000E20DA59F900DB49F900DA49F800D911DE7
:101BC00011240895A29FB001B39FC001A39F700D7F
:101BD000811D1124911DB29F700D811D1124911D35
:101BE0000895052E97FB1EF400940E94080E57FDE1
:101BF00007D00E94100E07FC03D04EF40C94080E80
:101C000050954095309521953F4F4F4F5F4F089528
:101C100090958095709561957F4F8F4F9F4F089558
:101C2000A1E21A2EAA1BBB1BFD010DC0AA1FBB1FE0
:101C3000EE1FFF1FA217B307E407F50720F0A21B52
:101C4000B30BE40BF50B661F771F881F991F1A94BF
:101C500069F760957095809590959B01AC01BD01E9
:101C6000CF010895EE0FFF1F0590F491E02D099428
:041C7000F894FFCF16
:101C74000000400014005400000000001906820413
:101C8400AF046606D705BE04890500000000CB0733
:101C94009E07E1089007970794079107000000004A
:0E1CA40045098204E108290774727565000085
:00000001FF
