:100000000C945D000C9485000C9485000C94850084
:100010000C9485000C9485000C9485000C9485004C
:100020000C9485000C9485000C9485000C9485003C
:100030000C9485000C9485000C9485000C9485002C
:100040000C9414020C9485000C9484020C945E02AF
:100050000C9485000C9485000C9485000C9485000C
:100060000C9485000C9485000000000024002700FB
:100070002A0000000000250028002B0004040404CE
:100080000404040402020202020203030303030342
:10009000010204081020408001020408102001021F
:1000A00004081020000000080002010000030407FB
:1000B0000000000000000000810411241FBECFEFEB
:1000C000D8E0DEBFCDBF26E0ACE7B1E001C01D92B5
:1000D000A235B207E1F711E0A0E0B1E0E0EBF9E012
:1000E00002C005900D92AC37B107D9F710E0CDE50D
:1000F000D0E004C02197FE010E94D004CC35D10786
:10010000C9F70E94B6020C94D6040C940000AF927A
:10011000BF92CF92DF92EF92FF920F931F93CF93F4
:10012000DF936C017B018B01040F151FEB015E0156
:10013000AE18BF08C017D10759F06991D601ED91EB
:10014000FC910190F081E02DC6010995892B79F78A
:10015000C501DF91CF911F910F91FF90EF90DF903C
:10016000CF90BF90AF900895FC01538D448D252F03
:1001700030E0842F90E0821B930B541710F0CF9641
:10018000089501970895FC01918D828D981761F073
:10019000A28DAE0FBF2FB11D5D968C91928D9F5F8A
:1001A0009F73928F90E008958FEF9FEF0895FC0169
:1001B000918D828D981731F0828DE80FF11D858D1C
:1001C00090E008958FEF9FEF0895FC01918D228DAF
:1001D000892F90E0805C9F4F821B91098F73992734
:1001E000089585EB95E00E94E50021E0892B09F454
:1001F00020E0822F089580E090E0892B29F00E9472
:10020000F10081110C9400000895FC01A48DA80F49
:10021000B92FB11DA35ABF4F2C91848D90E0019648
:100220008F739927848FA689B7892C93A089B18968
:100230008C91837080648C93938D848D981306C009
:100240000288F389E02D80818F7D80830895EF926D
:10025000FF920F931F93CF93DF93EC0181E0888F80
:100260009B8D8C8D98131AC0E889F989808185FF50
:1002700015C09FB7F894EE89FF896083E889F989F2
:1002800080818370806480839FBF81E090E0DF91F4
:10029000CF911F910F91FF90EF900895F62E0B8D47
:1002A00010E00F5F1F4F0F731127E02E8C8D8E1102
:1002B0000CC00FB607FCFACFE889F989808185FF69
:1002C000F5CFCE010E940501F1CFEB8DEC0FFD2F94
:1002D000F11DE35AFF4FF0829FB7F8940B8FEA8924
:1002E000FB8980818062CFCFCF93DF93EC01888D33
:1002F0008823B9F0AA89BB89E889F9898C9185FDA1
:1003000003C0808186FD0DC00FB607FCF7CF8C912E
:1003100085FFF2CF808185FFEDCFCE010E940501E0
:10032000E9CFDF91CF910895FC0101900020E9F71A
:100330003197AF01481B590BBC0185EB95E00C943C
:1003400087008F929F92AF92BF920F931F93CF938C
:10035000DF93CDB7DEB7A1970FB6F894DEBF0FBE1F
:10036000CDBF19A2423008F44AE08E010F5D1F4F45
:10037000842E912CB12CA12CA50194010E94AE04D5
:10038000E62FB901CA01EA30F4F4E05DD801EE933A
:100390008D01232B242B252B79F790E080E01097FB
:1003A00019F0CD010E949401A1960FB6F894DEBF1A
:1003B0000FBECDBFDF91CF911F910F91BF90AF9036
:1003C0009F908F900895E95CE1CFCF92DF92EF92FA
:1003D000FF92CF93DF936B017C016DE285EB95E09B
:1003E0000E942701EC0166277727CB016C197D0954
:1003F0008E099F094AE00E94A1018C0F9D1FDF9189
:10040000CF91FF90EF90DF90CF900895CF93DF933F
:100410000E949401EC0182E191E00E9494018C0F12
:100420009D1FDF91CF9108951F920F920FB60F92EB
:1004300011242F933F938F939F93AF93BF938091FA
:10044000B1059091B205A091B305B091B40530917A
:10045000B00523E0230F2D3758F50196A11DB11DDE
:100460002093B0058093B1059093B205A093B30596
:10047000B093B4058091AC059091AD05A091AE0507
:10048000B091AF050196A11DB11D8093AC0590936D
:10049000AD05A093AE05B093AF05BF91AF919F910D
:1004A0008F913F912F910F900FBE0F901F90189535
:1004B00026E8230F0296A11DB11DD2CF1F920F92E5
:1004C0000FB60F9211242F933F934F935F936F9327
:1004D0007F938F939F93AF93BF93EF93FF9385EB9E
:1004E00095E00E940501FF91EF91BF91AF919F911F
:1004F0008F917F916F915F914F913F912F910F90CD
:100500000FBE0F901F9018951F920F920FB60F926B
:1005100011242F938F939F93EF93FF93E091C50541
:10052000F091C6058081E091CB05F091CC0582FD6C
:100530001BC090818091CE058F5F8F732091CF0576
:10054000821741F0E091CE05F0E0EB54FA4F958F21
:100550008093CE05FF91EF919F918F912F910F90F6
:100560000FBE0F901F9018958081F4CF789484B5BA
:10057000826084BD84B5816084BD85B5826085BD9F
:1005800085B5816085BD80916E00816080936E002D
:10059000109281008091810082608093810080911F
:1005A00081008160809381008091800081608093D0
:1005B00080008091B10084608093B1008091B00090
:1005C00081608093B00080917A00846080937A008B
:1005D00080917A00826080937A0080917A008160B5
:1005E00080937A0080917A00806880937A001092DC
:1005F000C100E091C505F091C60582E08083E091DD
:10060000C105F091C2051082E091C305F091C405C7
:100610008FEC80831092CD05E091C905F091CA0559
:1006200086E08083E091C705F091C80580818061F4
:100630008083E091C705F091C80580818860808340
:10064000E091C705F091C805808180688083E091C2
:10065000C705F091C80580818F7D808382E390E09B
:10066000A0E0B0E08093B9059093BA05A093BB05D4
:10067000B093BC054DE950E0FA01649189E890E03F
:10068000FC012491222399F030E0220F331FF9015D
:10069000E859FF4FA591B491F901EE58FF4F25910C
:1006A00034912FB7F8943C91632B6C932FBFE1EBFF
:1006B000F0E02491FA014491FC0194919923E1F036
:1006C000222359F0233009F4FAC008F0EDC021309C
:1006D00009F4FBC0223009F4FCC0E92FF0E0EE0F72
:1006E000FF1FEE58FF4FA591B4918FB7F8949C91DE
:1006F000409549234C938FBF0CE815E09CE7E92E09
:1007000095E0F92E20E0C22E20E0D22ECCE7D1E0F9
:10071000DE0190E080E0ECE7F5E047E050E030E01B
:1007200020E0283031050CF0E1C0BC01042E02C0ED
:10073000759567950A94E2F76170772771836083F6
:10074000415051092F5F3F4F32962831310549F70B
:10075000ECE7F5E0208131812130310501F511828E
:10076000108221E030E040855185452B11F030E0CA
:1007700020E03187208721E030E046895789452BEA
:1007800011F030E020E0378B268B21E030E040A1F3
:1007900051A1452B11F030E020E031A320A3329687
:1007A0000E171F07B9F6ECEAF5E0812C912C5401E5
:1007B00030E020E052914291052E000C660B770B41
:1007C000022E04C0440F551F661F771F0A94D2F7EC
:1007D000840E951EA61EB71E2F5F3F4F2831310590
:1007E00049F78D929D92AD92BD9201968115F1E0EF
:1007F0009F0709F090CF85E191E00E9406028CE707
:10080000A82E81E0B82EF5016191719181919191AD
:100810005F0197FF6EC00E94E50182E191E00E94B6
:100820009401EA14FB0479F785E291E00E94060244
:1008300090E080E0ECE7F5E027E030E0AC01022E4C
:1008400002C0559547950A94E2F7417055274193A8
:1008500051932150310990F701968115E1E09E07EF
:1008600049F785E491E00E940602699179918991A6
:10087000999197FF42C00E94E50182E191E00E94B8
:100880009401CA15DB0589F788E591E00E9406020C
:10089000C114D10409F43ACF0E94F100882309F46D
:1008A00035CF0E94000032CF2730B1F02830D1F090
:1008B000243009F012CF809180008F7D03C0809199
:1008C00080008F778093800008CF84B58F7784BDB8
:1008D00004CF84B58F7DFBCF8091B0008F7780935C
:1008E000B000FBCE8091B0008F7DF9CF11821082D5
:1008F00029CF4AE00E94A10190CF4AE00E94A101C5
:10090000BCCFE5EBF5E01382128288EE93E0A0E025
:10091000B0E084839583A683B78384E091E09183DC
:10092000808385EC90E09587848784EC90E09787BE
:10093000868780EC90E0918B808B81EC90E0938BAC
:10094000828B82EC90E0958B848B86EC90E0978B89
:10095000868B118E128E138E148E0895A1E21A2E9C
:10096000AA1BBB1BFD010DC0AA1FBB1FEE1FFF1F53
:10097000A217B307E407F50720F0A21BB30BE40BA3
:10098000F50B661F771F881F991F1A9469F76095EA
:100990007095809590959B01AC01BD01CF010895A4
:1009A000EE0FFF1F0590F491E02D0994F894FFCF0E
:1009B0000000000027018700B4007401E500C300B7
:1009C000D7000D0A00546865206372632076616C5D
:1009D0007565733A00546865206372632063616CC7
:1009E00063756C6174696F6E2069732066696E69E6
:1009F000736865640054686520747864617461206C
:100A000076616C7565733A0054686520747864612A
:100A100074612063616C63756C6174696F6E2069C9
:0C0A2000732066696E69736865640000ED
:00000001FF
