:020000040000FA
:100000000C9462000C948A000C948A000C948A0070
:100010000C948A000C948A000C948A000C948A0038
:100020000C948A000C948A000C948A000C948A0028
:100030000C948A000C948A000C948A000C948A0018
:100040000C946A050C948A000C9438050C941205E3
:100050000C948A000C948A000C948A000C948A00F8
:100060000C948A000C948A000000000023002600F3
:10007000290000000000240027002A0000000000E2
:10008000250028002B0004040404040404040202D4
:100090000202020203030303030301020408102007
:1000A0004080010204081020010204081020000012
:1000B0000008000201000003040700000000000027
:1000C0000000B40511241FBECFEFD8E0DEBFCDBFC6
:1000D00011E0A0E0B1E0E2E3FFE002C005900D9284
:1000E000A233B107D9F722E0A2E3B1E001C01D922B
:1000F000A732B207E1F710E0C2E6D0E004C02197D2
:10010000FE010E949107C136D107C9F70E942C0653
:100110000C9497070C940000AF92BF92CF92DF929D
:10012000EF92FF920F931F93CF93DF936C017B01AC
:100130008B01040F151FEB015E01AE18BF08C0173D
:10014000D10759F06991D601ED91FC910190F081B0
:10015000E02DC6010995892B79F7C501DF91CF9173
:100160001F910F91FF90EF90DF90CF90BF90AF90D5
:100170000895FC01538D448D252F30E0842F90E0AD
:10018000821B930B541710F0CF9608950197089592
:10019000FC01918D828D981761F0A28DAE0FBF2F5B
:1001A000B11D5D968C91928D9F5F9F73928F90E0B1
:1001B00008958FEF9FEF0895FC01918D828D981720
:1001C00031F0828DE80FF11D858D90E008958FEF5D
:1001D0009FEF0895FC01918D228D892F90E0805C26
:1001E0009F4F821B91098F73992708958BE691E0A9
:1001F0000E94EA0021E0892B09F420E0822F089573
:1002000080E090E0892B29F00E94F60081110C9487
:1002100000000895FC01A48DA80FB92FB11DA35AA9
:10022000BF4F2C91848D90E001968F739927848F16
:10023000A689B7892C93A089B1898C918370806439
:100240008C93938D848D981306C00288F389E02DDA
:1002500080818F7D80830895EF92FF920F931F938B
:10026000CF93DF93EC0181E0888F9B8D8C8D981369
:100270001AC0E889F989808185FF15C09FB7F89475
:10028000EE89FF896083E889F989808183708064C1
:1002900080839FBF81E090E0DF91CF911F910F910C
:1002A000FF90EF900895F62E0B8D10E00F5F1F4F1B
:1002B0000F731127E02E8C8D8E110CC00FB607FC2A
:1002C000FACFE889F989808185FFF5CFCE010E94B8
:1002D0000A01F1CFEB8DEC0FFD2FF11DE35AFF4F1B
:1002E000F0829FB7F8940B8FEA89FB898081806246
:1002F000CFCFCF93DF93EC01888D8823B9F0AA8903
:10030000BB89E889F9898C9185FD03C0808186FDD0
:100310000DC00FB607FCF7CF8C9185FFF2CF80811F
:1003200085FFEDCFCE010E940A01E9CFDF91CF9189
:100330000895833081F028F4813099F08230A9F05B
:1003400008958730A9F08830C9F08430B1F48091E5
:1003500080008F7D03C0809180008F778093800024
:10036000089584B58F7784BD089584B58F7DFBCFC4
:100370008091B0008F778093B00008958091B00095
:100380008F7DF9CF1F93CF93DF93282F30E0F901B2
:10039000E255FF4F8491F901E656FF4FD491F901E0
:1003A000EA57FF4FC491CC23A9F0162F81110E9468
:1003B0009901EC2FF0E0EE0FFF1FE458FF4FA591DD
:1003C000B4918FB7F894EC91111108C0D095DE2349
:1003D000DC938FBFDF91CF911F910895DE2BF8CF73
:1003E000CF93682F617080911B020E94C20161E06F
:1003F00080911C020E94C20160E080911D020E9457
:10040000C20160E080911E020E94C201C0911202EE
:10041000809113028F3F21F0909114029111C82F07
:1004200061E08C2F0E94C20160E08C2FCF910C9470
:10043000C201CF93DF9390E0FC01E656FF4F249179
:100440008A579F4FFC0184918823D1F090E0880F58
:10045000991FFC01EE58FF4FA591B491FC01E4589F
:10046000FF4FC591D49161110EC09FB7F8948C9144
:10047000E22FE0958E238C932881E223E8839FBFAF
:10048000DF91CF9108958FB7F894EC91E22BEC9324
:100490008FBFF6CFDF92EF92FF920F931F93CF9310
:1004A000DF93EC01162FE42E0A858B858F3F19F020
:1004B0009C859111082F89858F3F09F04FC0EE81EF
:1004C000FF81309709F445C08C8509956E2D88858C
:1004D0000E94C201612F60718B890E94C201612F4D
:1004E00060728C890E94C201612F60748D890E94A4
:1004F000C201612F60788E890E94C20161E0802F65
:100500000E94C20160E0802F0E94C201612F6170D1
:100510008B890E94C201612F62708C890E94C20186
:10052000612F64708D890E94C201612F68708E896D
:100530000E94C20161E0802F0E94C20160E0802F12
:10054000DF91CF911F910F91FF90EF90DF900C946E
:10055000C2018BEF94E00197F1F7B8CF60E08B898F
:100560000E94190260E08C890E94190260E08D8966
:100570000E94190260E08E890E94190261E089855B
:100580000E94C20160E088850E94C20161E0802F64
:100590000E94C2012E8930E0F901E255FF4F84919B
:1005A000F901E656FF4FF490F901EA57FF4FD49056
:1005B000DD20B1F181110E949901ED2DF0E0EE0FE7
:1005C000FF1FE859FF4FA591B491EC91FE2281E005
:1005D00009F480E0F82E60E0802F0E94C20161E003
:1005E000802F0E94C20160E0802F0E94C20181E042
:1005F000F81609F4CBCF61E08B890E94190261E003
:100600008C890E94190261E08D890E94190261E0C3
:100610008E890E94190260E089850E94C20156CF2E
:10062000F12CD9CF40E00C944A020F931F93CF9343
:10063000DF938C01FC01808D841710F44FEF480F7D
:10064000F80147876687108AE40FF11D818DC82F56
:10065000C074F8019585690F8F73680F6832F4F0E4
:100660006852C62BD42FD270F8018485D81769F050
:10067000658D647F6860C8010E941203F801D48709
:10068000658D6860C8010E9412036C2F6068C80104
:10069000DF91CF911F910F910C94120367FFE1CF6F
:1006A000685DDFCF809113028F3F31F182E080934C
:1006B000140261E088E092E00E941203109214029A
:1006C00061E088E092E00E941203809111028F3F66
:1006D00051F480910E0290910F02892B21F48BE44A
:1006E0009DE20197F1F740E060E088E092E00E942F
:1006F000150310921502089561E088E092E00E94CF
:100700001203809111028F3FA1F780910E02909108
:100710000F02892B71F78BE49DE20197F1F7E9CF86
:100720001F93CF93DF93C62F18E0823009F010E0BB
:1007300082E12BE235E7F9013197F1F78150D9F7E2
:1007400060E0809110020E94C20160E08C2F0E9444
:10075000C20160E0809110020E94C20183E00E9409
:10076000F0018BE19EE40197F1F783E00E94F00134
:10077000C3E5D2E0CE010197F1F783E00E94F001DA
:10078000CE010197F1F782E00E94F0012197F1F785
:10079000612F606288E092E00E94120384E08093FF
:1007A0002502809113028F3FD1F440E06CE088E095
:1007B00092E00E944A0260912502686088E092E01F
:1007C0000E9412030E94520382E08093260266E098
:1007D00088E092E0DF91CF911F910C941203C091B9
:1007E00014021092140240E06CE088E092E00E9453
:1007F0004A0282E08093140240E06CE088E092E0DC
:100800000E944A02C0931402D6CFCF93C62F809382
:100810001F0280930D026093200260930C0290915E
:100820002102980F9093230290912202890F8093C6
:100830002402609112028C2F0E9490036091130297
:100840006F3F61F01092230280E48093240282E0E3
:10085000809314028C2FCF910C949003CF91089524
:100860001F93CF93DF93EC01162F8D85811103C069
:100870008889882329F04F856E85CE010E94150353
:100880001D3039F01A3029F041E0612FCE010E946D
:100890004A02188A8E8599892F85911121C08F5F10
:1008A0008E871D3041F0082E000C990B3F893817B8
:1008B000190609F02CF41E862F5F2F8781E0888BA4
:1008C0008F85082E000C990B288D2817190609F022
:1008D0000CF41F8681E090E0DF91CF911F91089585
:1008E00081508E871A3011F087FFEACF8F898150AF
:1008F0008E87E2CF089590E080E00895FB0101909B
:100900000020E9F73197AF01461B570BDC01ED9151
:10091000FC910280F381E02D09944F925F926F92D7
:100920007F92AF92BF92CF92DF92EF92FF920F939E
:100930001F93CF93DF93CDB7DEB7A1970FB6F8948F
:10094000DEBF0FBECDBF5C016A017B01F7FE47C071
:10095000DC01ED91FC910190F081E02D6DE20995B3
:100960008C0122273327A9012C193D094E095F0963
:1009700019A2FE01B1967F019AE0492E512C612CFB
:10098000712CCA01B901A30192010E946F07605D39
:10099000D7016E937D01211531054105510589F778
:1009A00090E080E0109721F0BD01C5010E947E0417
:1009B000800F911FA1960FB6F894DEBF0FBECDBF7A
:1009C000DF91CF911F910F91FF90EF90DF90CF902B
:1009D000BF90AF907F906F905F904F900895AB0164
:1009E000960119A28E010F5D1F4F8AE0C82ED12CEF
:1009F000E12CF12CCA01B901A70196010E946F07F1
:100A0000605DF80162938F012115310541055105A3
:100A100089F790E080E0309769F2BF01C5010E943C
:100A20007E04C8CF1F920F920FB60F9211242F93FE
:100A30003F934F935F936F937F938F939F93AF9366
:100A4000BF93EF93FF938BE691E00E940A01FF9121
:100A5000EF91BF91AF919F918F917F916F915F9136
:100A60004F913F912F910F900FBE0F901F901895AF
:100A70001F920F920FB60F9211242F938F939F9373
:100A8000EF93FF93E0917B01F0917C018081E091F5
:100A90008101F091820182FD1BC0908180918401CF
:100AA0008F5F8F7320918501821741F0E09184015F
:100AB000F0E0E559FE4F958F80938401FF91EF910F
:100AC0009F918F912F910F900FBE0F901F901895AF
:100AD0008081F4CF1F920F920FB60F9211242F93A3
:100AE0003F938F939F93AF93BF93809137019091E2
:100AF0003801A0913901B0913A013091360123E0DB
:100B0000230F2D3758F50196A11DB11D20933601F5
:100B10008093370190933801A0933901B0933A0143
:100B20008091320190913301A0913401B09135014F
:100B30000196A11DB11D8093320190933301A093C2
:100B40003401B0933501BF91AF919F918F913F9147
:100B50002F910F900FBE0F901F90189526E8230F2E
:100B60000296A11DB11DD2CF1F93CF93DF93EBE669
:100B7000F1E01382128288EE93E0A0E0B0E084837B
:100B80009583A683B78384E091E09183808385EC8D
:100B900090E09587848784EC90E09787868780EC47
:100BA00090E0918B808B81EC90E0938B828B82EC38
:100BB00090E0958B848B86EC90E0978B868B118EE2
:100BC000128E138E148EC8E0D2E01B821A8286E148
:100BD00091E0998388838CE088871FEF19871F82B3
:100BE0001E828BE08A871B871C861D861E861F86B9
:100BF000188A198A85E08B8B84E08C8B83E08D8B3F
:100C000082E08E8B61E085E00E94190261E084E061
:100C10000E94190261E083E00E94190261E082E013
:100C20000E941902198E80E48A8F84E18B8F84E5FB
:100C30008C8F61E088850E94190261E08A850E949C
:100C4000190261E084E10E9405041F821E82198757
:100C5000DF91CF911F910895789484B5826084BD0F
:100C600084B5816084BD85B5826085BD85B58160B0
:100C700085BD80916E00816080936E00109281002E
:100C800080918100826080938100809181008160E9
:100C900080938100809180008160809380008091AA
:100CA000B10084608093B1008091B0008160809336
:100CB000B00080917A00846080937A0080917A00FD
:100CC000826080937A0080917A00816080937A00BC
:100CD00080917A00806880937A001092C100E09140
:100CE0007B01F0917C0182E08083E0917701F091BB
:100CF00078011082E0917901F0917A0187E6808392
:100D000010928301E0917F01F091800186E0808361
:100D1000E0917D01F0917E01808180618083E0918E
:100D20007D01F0917E01808188608083E0917D016A
:100D3000F0917E01808180688083E0917D01F09157
:100D40007E0180818F7D808309E610E0C0E0D0E0E5
:100D5000EBE3F1E0DF0127E030E090E080E0883075
:100D600091050CF0B8C0A801022E02C05595479518
:100D70000A94E2F74170552711965C934E932150E7
:100D80003109019612968831910549F78081918148
:100D9000019701F51182108281E090E02085318574
:100DA000232B11F090E080E09187808781E090E034
:100DB00026893789232B11F090E080E0978B868B72
:100DC00081E090E020A131A1232B11F090E080E0A0
:100DD00091A380A3329681E0EB34F807B9F6EBE6F5
:100DE000F1E0C12CD12C760130E020E0929182918B
:100DF000092E000CAA0BBB0B022E04C0880F991FF2
:100E0000AA1FBB1F0A94D2F7C80ED91EEA1EFB1EEA
:100E10002F5F3F4F2831310549F74601570189E6D9
:100E2000A80EB11C6EE171E08BE691E00E947E0499
:100E3000B501A4018BE691E00E948D0460E271E0AF
:100E40008BE691E00E947E048BE691E00E9479019E
:100E500062E080E10E9405040E94520340E060E0ED
:100E600088E092E00E94150362E271E088E092E07F
:100E70000E947E04B701A60188E092E00E948D04E2
:100E800067E271E088E092E00E947E0449E650E06B
:100E900060E070E088E092E00E948D0441E060E054
:100EA00088E092E00E9415036EE271E088E092E033
:100EB0000E947E04B501A40188E092E00E948D04A6
:100EC000209709F445CF0E94F600882309F440CF0B
:100ED0000E9400003DCF11961C921E9252CFA1E2BB
:100EE0001A2EAA1BBB1BFD010DC0AA1FBB1FEE1FA4
:100EF000FF1FA217B307E407F50720F0A21BB30BEF
:100F0000E40BF50B661F771F881F991F1A9469F76A
:100F100060957095809590959B01AC01BD01CF01C6
:100F20000895EE0FFF1F0590F491E02D0994F894B9
:100F3000FFCF000000002C018C00B9007901EA000D
:100F4000C800DC000000000030048C007B047A0440
:100F5000690066004352433D0020646174613A00B9
:040F600054443D00B8
:107E0000112484B714BE81FFF0D085E080938100F7
:107E100082E08093C00088E18093C10086E0809377
:107E2000C20080E18093C4008EE0C9D0259A86E02C
:107E300020E33CEF91E0309385002093840096BBD3
:107E4000B09BFECF1D9AA8958150A9F7CC24DD24C4
:107E500088248394B5E0AB2EA1E19A2EF3E0BF2EE7
:107E6000A2D0813461F49FD0082FAFD0023811F036
:107E7000013811F484E001C083E08DD089C08234E0
:107E800011F484E103C0853419F485E0A6D080C0E4
:107E9000853579F488D0E82EFF2485D0082F10E0AE
:107EA000102F00270E291F29000F111F8ED06801E7
:107EB0006FC0863521F484E090D080E0DECF843638
:107EC00009F040C070D06FD0082F6DD080E0C81688
:107ED00080E7D80618F4F601B7BEE895C0E0D1E017
:107EE00062D089930C17E1F7F0E0CF16F0E7DF06D8
:107EF00018F0F601B7BEE89568D007B600FCFDCFD4
:107F0000A601A0E0B1E02C9130E011968C91119780
:107F100090E0982F8827822B932B1296FA010C0160
:107F200087BEE89511244E5F5F4FF1E0A038BF0790
:107F300051F7F601A7BEE89507B600FCFDCF97BE46
:107F4000E89526C08437B1F42ED02DD0F82E2BD052
:107F50003CD0F601EF2C8F010F5F1F4F84911BD097
:107F6000EA94F801C1F70894C11CD11CFA94CF0C13
:107F7000D11C0EC0853739F428D08EE10CD085E9AC
:107F80000AD08FE07ACF813511F488E018D01DD067
:107F900080E101D065CF982F8091C00085FFFCCF94
:107FA0009093C60008958091C00087FFFCCF809118
:107FB000C00084FD01C0A8958091C6000895E0E648
:107FC000F0E098E1908380830895EDDF803219F02E
:107FD00088E0F5DFFFCF84E1DECF1F93182FE3DFCA
:107FE0001150E9F7F2DF1F91089580E0E8DFEE27F6
:047FF000FF270994CA
:027FFE00040479
:00000001FF
