:020000040000FA
:100000000C9435040C945D040C945D040C945D0414
:100010000C945D040C945D040C945D040C945D04DC
:100020000C945D040C945D040C945D040C945D04CC
:100030000C945D040C945D040C945D040C945D04BC
:100040000C946C050C945D040C94DC050C94B605C2
:100050000C945D040C945D040C945D040C945D049C
:100060000C945D040C945D04000010212042306368
:10007000408450A560C670E781089129A14AB16B00
:10008000C18CD1ADE1CEF1EF1231021032732252A8
:1000900052B5429472F762D693398318B37BA35A50
:1000A000D3BDC39CF3FFE3DE246234430420140178
:1000B00064E674C744A45485A56AB54B85289509A0
:1000C000E5EEF5CFC5ACD58D365326721611063048
:1000D00076D766F6569546B4B75BA77A97198738F0
:1000E000F7DFE7FED79DC7BC48C458E5688678A708
:1000F0000840186128023823C9CCD9EDE98EF9AF40
:1001000089489969A90AB92B5AF54AD47AB76A96E7
:100110001A710A503A332A12DBFDCBDCFBBFEB9E8F
:100120009B798B58BB3BAB1A6CA67C874CE45CC5B7
:100130002C223C030C601C41EDAEFD8FCDECDDCDDF
:10014000AD2ABD0B8D689D497E976EB65ED54EF487
:100150003E132E321E510E70FF9FEFBEDFDDCFFC2F
:10016000BF1BAF3A9F598F78918881A9B1CAA1EB83
:10017000D10CC12DF14EE16F108000A130C220E3FF
:10018000500440257046606783B99398A3FBB3DAA7
:10019000C33DD31CE37FF35E02B1129022F332D24F
:1001A0004235521462777256B5EAA5CB95A8858977
:1001B000F56EE54FD52CC50D34E224C314A004819F
:1001C0007466644754244405A7DBB7FA879997B847
:1001D000E75FF77EC71DD73C26D336F2069116B0EF
:1001E0006657767646155634D94CC96DF90EE92F07
:1001F00099C889E9B98AA9AB58444865780668273F
:1002000018C008E1388228A3CB7DDB5CEB3FFB1EE6
:100210008BF99BD8ABBBBB9A4A755A546A377A168E
:100220000AF11AD02AB33A92FD2EED0FDD6CCD4DB6
:10023000BDAAAD8B9DE88DC97C266C075C644C45DE
:100240003CA22C831CE00CC1EF1FFF3ECF5DDF7C86
:10025000AF9BBFBA8FD99FF86E177E364E555E742E
:100260002E933EB20ED11EF000003331666255531C
:10027000CCC4FFF5AAA6999789A9BA98EFCBDCFA66
:10028000456D765C230F103E037330426511562096
:10029000CFB7FC86A9D59AE48ADAB9EBECB8DF8946
:1002A000461E752F207C134D06E635D7608453B566
:1002B000CA22F913AC409F718F4FBC7EE92DDA1C26
:1002C000438B70BA25E916D8059536A463F750C656
:1002D000C951FA60AF339C028C3CBF0DEA5ED96F06
:1002E00040F873C9269A15AB0DCC3EFD6BAE589FF6
:1002F000C108F239A76A945B8465B754E207D13626
:1003000048A17B902EC31DF20EBF3D8E68DD5BECD5
:10031000C27BF14AA41997288716B427E174D24505
:100320004BD278E32DB01E810B2A381B6D485E79C5
:10033000C7EEF4DFA18C92BD8283B1B2E4E1D7D0E5
:100340004E477D7628251B1408593B686E3B5D0A95
:10035000C49DF7ACA2FF91CE81F0B2C1E792D4A3C5
:100360004D347E052B5618671B9828A97DFA4ECB75
:10037000D75CE46DB13E820F9231A100F453C762A5
:100380005EF56DC438970BA618EB2BDA7E894DB855
:10039000D42FE71EB24D817C9142A273F720C41185
:1003A0005D866EB73BE408D51D7E2E4F7B1C482D25
:1003B000D1BAE28BB7D884E994D7A7E6F2B5C18465
:1003C00058136B223E710D401E0D2D3C786F4B5E15
:1003D000D2C9E1F8B4AB879A97A4A495F1C6C2F745
:1003E0005B6068513D020E33165425657036430735
:1003F000DA90E9A1BCF28FC39FFDACCCF99FCAAEE5
:1004000053396008355B066A152726167345407414
:10041000D9E3EAD2BF818CB09C8EAFBFFAECC9DDC4
:10042000504A637B3628051910B2238376D045E104
:10043000DC76EF47BA148925991BAA2AFF79CC48A4
:1004400055DF66EE33BD008C13C120F075A34692D4
:10045000DF05EC34B9678A569A68A959FC0ACF3B84
:1004600056AC659D30CE03FF000037306E605950AA
:10047000DCC0EBF0B2A08590A9A19E91C7C1F0F1BC
:10048000756142511B012C31436374532D031A33A0
:100490009FA3A893F1C3C6F3EAC2DDF284A2B3928C
:1004A0003602013258626F5286C6B1F6E8A6DF9670
:1004B0005A066D36346603562F671857410776374C
:1004C000F3A7C4979DC7AAF7C5A5F295ABC59CF540
:1004D00019652E55770540356C045B34026435543C
:1004E000B0C487F4DEA4E9941DAD2A9D73CD44FD0C
:1004F000C16DF65DAF0D983DB40C833CDA6CED5CDC
:1005000068CC5FFC06AC319C5ECE69FE30AE079EC7
:10051000820EB53EEC6EDB5EF76FC05F990FAE3FAB
:100520002BAF1C9F45CF72FF9B6BAC5BF50BC23BA7
:1005300047AB709B29CB1EFB32CA05FA5CAA6B9AAB
:10054000EE0AD93A806AB75AD808EF38B6688158A7
:1005500004C833F86AA85D9871A946991FC928F99B
:10056000AD699A59C309F4393B5A0C6A553A620A83
:10057000E79AD0AA89FABECA92FBA5CBFC9BCBAB6B
:100580004E3B790B205B176B78394F09165921695F
:10059000A4F993C9CA99FDA9D198E6A8BFF888C85B
:1005A0000D583A6863385408BD9C8AACD3FCE4CC3F
:1005B000615C566C0F3C380C143D230D7A5D4D6D1B
:1005C000C8FDFFCDA69D91ADFEFFC9CF909FA7AFFF
:1005D000223F150F4C5F7B6F575E606E393E0E0EEB
:1005E0008B9EBCAEE5FED2CE26F711C748977FA7FB
:1005F000FA37CD079457A3678F56B866E136D6060B
:10060000539664A63DF60AC6659452A40BF43CC406
:10061000B9548E64D734E004CC35FB05A2559565FA
:1006200010F527C57E9549A5A0319701CE51F961F6
:100630007CF14BC1129125A109903EA067F050C0FA
:10064000D550E260BB308C00E352D4628D32BA02E6
:100650003F9208A251F266C24AF37DC3249313A3CA
:100660009633A103F853CF63000076B4ED689BDCAA
:10067000CAF1BC452799512D85C3F37768AB1E1F7E
:100680004F323986A25AD4EE1BA76D13F6CF807B6A
:10069000D156A7E23C3E4A8A9E64E8D0730C05B866
:1006A00054952221B9FDCF49374E41FADA26AC9252
:1006B000FDBF8B0B10D76663B28DC4395FE529513E
:1006C000787C0EC89514E3A02CE95A5DC181B7353A
:1006D000E61890AC0B707DC4A92ADF9E444232F626
:1006E00063DB156F8EB3F8076E9C182883F4F54012
:1006F000A46DD2D949053FB1EB5F9DEB06377083FE
:1007000021AE571ACCC6BA72753B038F9853EEE7E9
:10071000BFCAC97E52A22416F0F8864C1D906B24E5
:100720003A094CBDD761A1D559D22F66B4BAC20ED1
:100730009323E5977E4B08FFDC11AAA5317947CDBD
:1007400016E06054FB888D3C427534C1AF1DD9A9B9
:100750008884FE3065EC1358C7B6B1022ADE5C6AA5
:100760000D477BF3E02F969BDD38AB8C305046E491
:1007700017C9617DFAA18C1558FB2E4FB593C3277D
:10078000920AE4BE7F6209D6C69FB02B2BF75D4369
:100790000C6E7ADAE10697B2435C35E8AE34D88065
:1007A00089ADFF1964C51271EA769CC2071E71AA51
:1007B00020875633CDEFBB5B6FB5190182DDF4693D
:1007C000A544D3F0482C3E98F1D187651CB96A0D39
:1007D0003B204D94D648A0FC741202A6997AEFCE25
:1007E000BEE3C857538B253FB3A4C5105ECC287811
:1007F00079550FE1943DE289366740D3DB0FADBBFD
:10080000FC968A2211FE674AA803DEB7456B33DFE8
:1008100062F214468F9AF92E2DC05B74C0A8B61CE4
:10082000E73191850A597CED84EAF25E69821F36D0
:100830004E1B38AFA373D5C70129779DEC419AF5BC
:10084000CBD8BD6C26B050049F4DE9F972250491B8
:1008500055BC2308B8D4CE601A8E6C3AF7E68152A4
:10086000D07FA6CB3D174BA30E0611241FBECFEFA2
:10087000D8E0DEBFCDBF11E0A0E0B1E0EEE1FFE0E7
:1008800002C005900D92A231B107D9F721E0A2E193
:10089000B1E001C01D92AA3BB207E1F714E0C5E345
:1008A000D4E004C02197FE010E948707C433D1071A
:1008B000C9F70E943B060C948D070C940000AF9280
:1008C000BF92CF92DF92EF92FF920F931F93CF933D
:1008D000DF936C017B018B01040F151FEB015E019F
:1008E000AE18BF08C017D10759F06991D601ED9134
:1008F000FC910190F081E02DC6010995892B79F7D3
:10090000C501DF91CF911F910F91FF90EF90DF9084
:10091000CF90BF90AF900895FC01538D448D252F4B
:1009200030E0842F90E0821B930B541710F0CF9689
:10093000089501970895FC01918D828D981761F0BB
:10094000A28DAE0FBF2FB11D5D968C91928D9F5FD2
:100950009F73928F90E008958FEF9FEF0895FC01B1
:10096000918D828D981731F0828DE80FF11D858D64
:1009700090E008958FEF9FEF0895FC01918D228DF7
:10098000892F90E0805C9F4F821B91098F7399277C
:1009900008958BE191E00E94BD0421E0892B09F4C8
:1009A00020E0822F089580E090E0892B29F00E94BA
:1009B000C90481110C9400000895FC01A48DA80FB6
:1009C000B92FB11DA35ABF4F2C91848D90E0019691
:1009D0008F739927848FA689B7892C93A089B189B1
:1009E0008C91837080648C93938D848D981306C052
:1009F0000288F389E02D80818F7D80830895EF92B6
:100A0000FF920F931F93CF93DF93EC0181E0888FC8
:100A10009B8D8C8D98131AC0E889F989808185FF98
:100A200015C09FB7F894EE89FF896083E889F9893A
:100A300080818370806480839FBF81E090E0DF913C
:100A4000CF911F910F91FF90EF900895F62E0B8D8F
:100A500010E00F5F1F4F0F731127E02E8C8D8E114A
:100A60000CC00FB607FCFACFE889F989808185FFB1
:100A7000F5CFCE010E94DD04F1CFEB8DEC0FFD2F01
:100A8000F11DE35AFF4FF0829FB7F8940B8FEA896C
:100A9000FB8980818062CFCFCF93DF93EC01888D7B
:100AA0008823B9F0AA89BB89E889F9898C9185FDE9
:100AB00003C0808186FD0DC00FB607FCF7CF8C9177
:100AC00085FFF2CF808185FFEDCFCE010E94DD044E
:100AD000E9CFDF91CF9108951F920F920FB60F9239
:100AE00011242F933F938F939F93AF93BF93809144
:100AF000170190911801A0911901B0911A0130913C
:100B0000160123E0230F2D3758F50196A11DB11DC5
:100B1000209316018093170190931801A093190157
:100B2000B0931A018091120190911301A0911401C8
:100B3000B09115010196A11DB11D809312019093F2
:100B40001301A0931401B0931501BF91AF919F9130
:100B50008F913F912F910F900FBE0F901F9018957E
:100B600026E8230F0296A11DB11DD2CF1F920F922E
:100B70000FB60F9211242F933F934F935F936F9370
:100B80007F938F939F93AF93BF93EF93FF938BE1EB
:100B900091E00E94DD04FF91EF91BF91AF919F9191
:100BA0008F917F916F915F914F913F912F910F9016
:100BB0000FBE0F901F9018951F920F920FB60F92B5
:100BC00011242F938F939F93EF93FF93E0912B0129
:100BD000F0912C018081E0913101F091320182FD90
:100BE0001BC09081809134018F5F8F7320913501FC
:100BF000821741F0E0913401F0E0E55EFE4F958F01
:100C000080933401FF91EF919F918F912F910F90DD
:100C10000FBE0F901F9018958081F4CFEBE1F1E0AB
:100C20001382128288EE93E0A0E0B0E08483958383
:100C3000A683B78384E091E09183808385EC90E084
:100C40009587848784EC90E09787868780EC90E096
:100C5000918B808B81EC90E0938B828B82EC90E087
:100C6000958B848B86EC90E0978B868B118E128E01
:100C7000138E148E0895CF93DF93CDB7DEB7A5976B
:100C80000FB6F894DEBF0FBECDBF789484B58260F6
:100C900084BD84B5816084BD85B5826085BD85B520
:100CA000816085BD80916E00816080936E0010929E
:100CB0008100809181008260809381008091810019
:100CC00081608093810080918000816080938000AA
:100CD0008091B10084608093B1008091B000816008
:100CE0008093B00080917A00846080937A00809134
:100CF0007A00826080937A0080917A00816080938C
:100D00007A0080917A00806880937A001092C10006
:100D1000E0912B01F0912C0182E08083E09127018A
:100D2000F09128011082E0912901F0912A018FECC5
:100D3000808310923301E0912F01F091300186E021
:100D40008083E0912D01F0912E018081806180836C
:100D5000E0912D01F0912E01808188608083E091E7
:100D60002D01F0912E01808180688083E0912D011A
:100D7000F0912E0180818F7D80837E0182E2E80EDA
:100D8000F11C170193E0292233246E01E3E2CE0E19
:100D9000D11CC601837099279DA38CA3FAE08F2EE6
:100DA000912CA12CB12C80E18AA380E28BA3211489
:100DB000310409F46EC0E8E8F0E025913491ECA12B
:100DC000FDA181E090E05C2D4D2DEF2B09F467C073
:100DD000F901FF2780E2E827EE0FFF1FE859FF4FD8
:100DE00085919491232F3327282739273093B901F0
:100DF0002093B801C901B0E0A0E04424582E692E28
:100E00007A2E66247724892F9A2FAB2FBB27482A66
:100E1000592A6A2A7B2A90EE691A9FEE790A69E6B6
:100E20008BE191E00E94FF0419A28E010F5D1F4F1C
:100E3000C301B201A50194010E94650729013A018D
:100E4000605DF80162938F014114510461047104E3
:100E500079F7309761F001900020E9F73197AF0101
:100E6000401B510BB8018BE191E00E945F0466E6E4
:100E70008BE191E00E94FF0480E090E0892B09F46F
:100E800092CF0E94C904882309F48DCF0E940000EC
:100E900085CF30E020E082E090E05E2D4F2DA52F41
:100EA000B42F8A0F9B1F8A179B0709F49FCF432FEC
:100EB0005527ED91F0E0E227EE0FFF1FE859FF4FB5
:100EC0002591349124273527EECFA1E21A2EAA1BB3
:100ED000BB1BFD010DC0AA1FBB1FEE1FFF1FA217EA
:100EE000B307E407F50720F0A21BB30BE40BF50BE7
:100EF000661F771F881F991F1A9469F76095709570
:100F0000809590959B01AC01BD01CF010895EE0F36
:100F1000FF1F0590F491E02D0994F894FFCF000095
:100F20000000FF045F048C044C05BD049B04AF0467
:107E0000112484B714BE81FFF0D085E080938100F7
:107E100082E08093C00088E18093C10086E0809377
:107E2000C20080E18093C4008EE0C9D0259A86E02C
:107E300020E33CEF91E0309385002093840096BBD3
:107E4000B09BFECF1D9AA8958150A9F7CC24DD24C4
:107E500088248394B5E0AB2EA1E19A2EF3E0BF2EE7
:107E6000A2D0813461F49FD0082FAFD0023811F036
:107E7000013811F484E001C083E08DD089C08234E0
:107E800011F484E103C0853419F485E0A6D080C0E4
:107E9000853579F488D0E82EFF2485D0082F10E0AE
:107EA000102F00270E291F29000F111F8ED06801E7
:107EB0006FC0863521F484E090D080E0DECF843638
:107EC00009F040C070D06FD0082F6DD080E0C81688
:107ED00080E7D80618F4F601B7BEE895C0E0D1E017
:107EE00062D089930C17E1F7F0E0CF16F0E7DF06D8
:107EF00018F0F601B7BEE89568D007B600FCFDCFD4
:107F0000A601A0E0B1E02C9130E011968C91119780
:107F100090E0982F8827822B932B1296FA010C0160
:107F200087BEE89511244E5F5F4FF1E0A038BF0790
:107F300051F7F601A7BEE89507B600FCFDCF97BE46
:107F4000E89526C08437B1F42ED02DD0F82E2BD052
:107F50003CD0F601EF2C8F010F5F1F4F84911BD097
:107F6000EA94F801C1F70894C11CD11CFA94CF0C13
:107F7000D11C0EC0853739F428D08EE10CD085E9AC
:107F80000AD08FE07ACF813511F488E018D01DD067
:107F900080E101D065CF982F8091C00085FFFCCF94
:107FA0009093C60008958091C00087FFFCCF809118
:107FB000C00084FD01C0A8958091C6000895E0E648
:107FC000F0E098E1908380830895EDDF803219F02E
:107FD00088E0F5DFFFCF84E1DECF1F93182FE3DFCA
:107FE0001150E9F7F2DF1F91089580E0E8DFEE27F6
:047FF000FF270994CA
:027FFE00040479
:00000001FF
