:100000000C945D000C9485000C9485000C94850084
:100010000C9485000C9485000C9485000C9485004C
:100020000C9485000C9485000C9485000C9485003C
:100030000C9485000C9485000C9485000C9485002C
:100040000C94B2060C9485000C9480060C945A060D
:100050000C9485000C9485000C9485000C9485000C
:100060000C94FC060C9485000000000800020100BE
:100070000003040700000000000000000000000072
:10008000250028002B0000000000240027002A0083
:10009000040404040404040402020202020203032E
:1000A0000303030301020408102040800102040836
:1000B0001020010204081020170811241FBECFEFE2
:1000C000D8E0DEBFCDBF22E0ACE3B1E001C01D92BD
:1000D000A33CB207E1F711E0A0E0B1E0ECE1F5E10B
:1000E00002C005900D92AC33B107D9F710E0CDE511
:1000F000D0E004C02197FE010E94860ACC35D107CA
:10010000C9F70E945F080C948C0A0C940000AF920F
:10011000BF92CF92DF92EF92FF920F931F93CF93F4
:10012000DF936C017B018B01040F151FEB015E0156
:10013000AE18BF08C017D10759F06991D601ED91EB
:10014000FC910190F081E02DC6010995892B79F78A
:10015000C501DF91CF911F910F91FF90EF90DF903C
:10016000CF90BF90AF900895FC01538D448D252F03
:1001700030E0842F90E0821B930B541710F0CF9641
:10018000089501970895FC01918D828D981761F073
:10019000A28DAE0FBF2FB11D5D968C91928D9F5F8A
:1001A0009F73928F90E008958FEF9FEF08958F9245
:1001B0009F92AF92BF92CF92DF92EF92FF920F93F6
:1001C0001F93CF93DF93DC0112962D913C91EC01AC
:1001D00001E010E0232B31F590E080E0DF91CF913A
:1001E0001F910F91FF90EF90DF90CF90BF90AF9055
:1001F0009F908F90089521153105A1F0EC80FD802E
:10020000A701415051095D834C83FB01E40FF51FA9
:10021000E0810E2E000CFF0BE817F90709F442C02D
:10022000452B61F72FB7F89480910A0290910B0249
:10023000A0910C02B0910D022FBF809316029093F3
:100240001702A0931802B09319028EE092E00E9468
:10025000C30097FF49C02FB7F89480910A0290918C
:100260000B02A0910C02B0910D022FBF409116021B
:10027000509117026091180270911902841B950B1E
:10028000A60BB70B40911202509113026091140219
:100290007091150284179507A607B707B0F28FEF84
:1002A0009FEF9CCF41155105E1F06B01D901A41BD3
:1002B000B50B4D01860E971EF0E0E0E0D601AD9043
:1002C0006D01D401BD904D01AB1004C03196E4170F
:1002D000F507A0F3E417F50709F090CFFD82EC8253
:1002E000A1CF1D830C839ECF688179812C813D81B4
:1002F000FB01E20FF31F4081042E000C550B841705
:10030000950709F078CF2F5F3F4F3D832C838A817B
:100310009B812817390709F085CF5ECFFC01918DAD
:10032000828D981731F0828DE80FF11D858D90E058
:1003300008958FEF9FEF08952FB7F89480910A02E8
:1003400090910B02A0910C02B0910D022FBF8093EF
:10035000160290931702A0931802B09319028EE030
:1003600092E00E948E0197FF26C02FB7F8948091EB
:100370000A0290910B02A0910C02B0910D022FBFC6
:100380004091160250911702609118027091190263
:10039000841B950BA60BB70B4091120250911302D0
:1003A000609114027091150284179507A607B7078C
:1003B000B0F28FEF9FEF0895FC01918D228D892F70
:1003C00090E0805C9F4F821B91098F73992708955D
:1003D0008EE092E00E94DC0121E0892B09F420E00C
:1003E000822F089580E090E0892B29F00E94E80197
:1003F00081110C9400000895FC01A48DA80FB92F61
:10040000B11DA35ABF4F2C91848D90E001968F733C
:100410009927848FA689B7892C93A089B1898C915B
:10042000837080648C93938D848D981306C00288AA
:10043000F389E02D80818F7D80830895EF92FF9274
:100440000F931F93CF93DF93EC0181E0888F9B8DF7
:100450008C8D98131AC0E889F989808185FF15C0B1
:100460009FB7F894EE89FF896083E889F9898081D4
:100470008370806480839FBF81E090E0DF91CF91A3
:100480001F910F91FF90EF900895F62E0B8D10E0C5
:100490000F5F1F4F0F731127E02E8C8D8E110CC034
:1004A0000FB607FCFACFE889F989808185FFF5CF7F
:1004B000CE010E94FC01F1CFEB8DEC0FFD2FF11D61
:1004C000E35AFF4FF0829FB7F8940B8FEA89FB89BC
:1004D00080818062CFCFCF93DF93EC01888D88231A
:1004E000B9F0AA89BB89E889F9898C9185FD03C097
:1004F000808186FD0DC00FB607FCF7CF8C9185FF7C
:10050000F2CF808185FFEDCFCE010E94FC01E9CFC3
:10051000DF91CF91089590E0FC01E859FF4F2491BD
:10052000FC01EC55FF4F3491FC01E057FF4FE49183
:10053000EE23C9F0222339F0233001F1A8F4213051
:1005400019F1223029F1F0E0EE0FFF1FE458FF4FC0
:10055000A591B4918FB7F894EC91611126C03095B4
:100560003E233C938FBF08952730A9F02830C9F06F
:10057000243049F7809180008F7D03C080918000F6
:100580008F7780938000DFCF84B58F7784BDDBCFFA
:1005900084B58F7DFBCF8091B0008F778093B000C2
:1005A000D2CF8091B0008F7DF9CF3E2BDACF3FB70D
:1005B000F8948091D2019091D301A091D401B0918F
:1005C000D50126B5A89B05C02F3F19F00196A11DA6
:1005D000B11D3FBFBA2FA92F982F8827BC01CD018D
:1005E000620F711D811D911D42E0660F771F881FEC
:1005F000991F4A95D1F708958F929F92AF92BF921B
:10060000CF92DF92EF92FF924B015C010E94D702E2
:100610006B017C010E94D7026C197D098E099F092C
:10062000683E734081059105A8F321E0821A910884
:10063000A108B10888EEC80E83E0D81EE11CF11CA9
:1006400081149104A104B10429F7FF90EF90DF9089
:10065000CF90BF90AF909F908F9008951F93CF93AE
:10066000DF93C1E0C0936601882399F1D091B8006F
:100670001091BA008091BC008A7B8093BC0060E03E
:1006800082E10E948B0260E083E10E948B02109263
:10069000AB01C093AD011092AC0161E082E10E9418
:1006A0008B0261E083E10E948B028091B9008E7F12
:1006B0008093B9008091B9008D7F8093B90088E460
:1006C0008093B80085E48093BC001093BA00D09367
:1006D000B800DF91CF911F91089520918701260FD7
:1006E0003327331F21323105ECF42091AB01FC019B
:1006F00090E080E0243069F082E00895A0918701C5
:100700002191AC0149595E4FA40FB52FB11D2C9317
:100710000196861798F380918701680F609387018F
:1007200080E0089581E0089508958FEF9FEF089588
:100730008FEF9FEF08958091600190E091958195F2
:1007400091090895CF92DF92EF92FF920F931F933A
:10075000CF93DF937C01CB018A0120915F0122239B
:1007600089F0EB016B01C40ED51ECC15DD0569F0D7
:100770006991D701ED91FC910190F081E02DC701C5
:100780000995F3CF642F0E946D03C801DF91CF91CB
:100790001F910F91FF90EF90DF90CF900895CF932E
:1007A000DF931F92CDB7DEB7698320915F012223CB
:1007B000F9F020915E01203258F021E030E0FC0198
:1007C0003383228390E080E00F90DF91CF910895F2
:1007D00080915D01E82FF0E0E35CFE4F998190830A
:1007E0008F5F80935D0180935E0181E090E0ECCFAC
:1007F00061E0CE0101960E946D03F7CFCF92DF92A8
:10080000EF92FF920F931F93CF93DF93FC01C4816C
:1008100021E020935F01C0933C0110925D01109292
:100820005E018385682B8BEA92E00E94CF03D09112
:100830005E01D13208F092C00E94D7026B017C01A8
:100840008091AB01811165C082E08093AB0181E0B2
:100850008093AD018FEF8093AA011092CF01D093C6
:10086000CE01ADE3B1E0EEEAF1E080E0D81385C05F
:100870001092D0018091D001CC0FC82BC093D00131
:100880008091AC01813009F07CC01092AC010E94D3
:10089000D7026B017C018091D0018093BB008091D5
:1008A000620190916301A0916401B0916501892B6F
:1008B0008A2B8B2B99F00E94D70200916201109134
:1008C000630120916401309165016C197D098E09E5
:1008D0009F090617170728073907E0F18091BC0028
:1008E00083FDD9CF85EC8093BC000E94D7026B01B9
:1008F0007C018091AB01823009F445C08091AA014E
:100900008F3F61F18091AA01803241F18091AA016B
:1009100025C08091620190916301A0916401B09122
:100920006501892B8A2B8B2B09F48ACF0E94D70271
:100930000091620110916301209164013091650181
:100940006C197D098E099F090617170728073907B3
:1009500008F076CF809161010E942E0310925D0114
:1009600010925E0110925F01DF91CF911F910F9164
:10097000FF90EF90DF90CF9008959D9191938F5FBE
:1009800075CF85EEB0CF8091620190916301A09107
:100990006401B0916501892B8A2B8B2B09F4A9CFB7
:1009A0000E94D702009162011091630120916401BD
:1009B000309165016C197D098E099F09061717078B
:1009C0002807390708F095CFC5CF089590E080E05B
:1009D00008958F929F92AF92BF920F931F93CF93E0
:1009E000DF93CDB7DEB7A1970FB6F894DEBF0FBE89
:1009F000CDBF19A2423008F44AE08E010F5D1F4FAF
:100A0000842E912CB12CA12CA50194010E94640A82
:100A1000E62FB901CA01EA3044F5E05DD801EE9352
:100A20008D01232B242B252B79F790E080E0109764
:100A300069F0FD0101900020E9F73197AF014A1BF1
:100A40005B0BBD0187EB92E00E948700A1960FB679
:100A5000F894DEBF0FBECDBFDF91CF911F910F91F4
:100A6000BF90AF909F908F900895E95CD7CF0F9380
:100A70001F93CF938C01C62F0E94FE036C2F6460DE
:100A8000C8010E94FE036C2F6B7FC8010E94FE0309
:100A900083EC90E00197F1F7CF911F910F910895AA
:100AA0000F931F93CF93DF938C01D62FC42F607FBA
:100AB000642B0E94370580E1D89FB00111246C2B74
:100AC000C801DF91CF911F910F910C94370540E041
:100AD00061E087EB92E00E9450058BE39FE1019774
:100AE000F1F70895FF920F931F93CF93DF93C7EB16
:100AF000D2E08D8188608D8382E0F82EF88662E3F3
:100B000070E080E090E00E94FC026B85CE010E94C4
:100B1000FE0368EE73E080E090E00E94FC0260E378
:100B2000CE010E9437050BE416E4C8010197F1F7E6
:100B300060E3CE010E943705C8010197F1F760E339
:100B4000CE010E94370583E592E00197F1F760E25C
:100B5000CE010E9437056D81606240E0CE010E94A7
:100B6000500584E08E8340E06CE0CE010E94500589
:100B70000E946705FF8240E066E0CE010E945005BA
:100B800040E062E0CE010E9450058BE39FE10197B7
:100B9000F1F7DF91CF911F910F91FF900895CF93BF
:100BA000DF93CDB7DEB728970FB6F894DEBF0FBE40
:100BB000CDBF98E0E0E0F1E0DE01119601900D92EA
:100BC0009A95E1F79091BF02981708F48FEF90E0A3
:100BD000880F991F21E030E02C0F3D1F820F931FDB
:100BE000FC016081606840E087EB92E028960FB6D8
:100BF000F894DEBF0FBECDBFDF91CF910C945005AE
:100C000041E00E94500581E090E00895CF92DF928C
:100C1000EF92FF926B017C0141E06DE287EB92E085
:100C20000E94500566277727CB016C197D098E0934
:100C30009F094AE00E94E9040196FF90EF90DF903F
:100C4000CF90089585ED8093BC00809162019091D2
:100C50006301A0916401B09165010796A11DB11DCA
:100C600023E0B695A795979587952A95D1F720917A
:100C7000BC0024FD03C01092AB01089540916201B5
:100C8000509163016091640170916501452B462B81
:100C9000472B69F30097A105B10541F025E32A959B
:100CA000F1F700000197A109B109E1CF809161013D
:100CB0000C942E031F920F920FB60F9211242F93B4
:100CC0003F934F935F936F937F938F939F93AF93D4
:100CD000BF93EF93FF938EE092E00E94FC01FF919F
:100CE000EF91BF91AF919F918F917F916F915F91A4
:100CF0004F913F912F910F900FBE0F901F9018951D
:100D00001F920F920FB60F9211242F938F939F93E0
:100D1000EF93FF93E0911E02F0911F028081E0911A
:100D20002402F091250282FD1BC090818091270250
:100D30008F5F8F7320912802821741F0E091270284
:100D4000F0E0E25FFD4F958F80932702FF91EF91D6
:100D50009F918F912F910F900FBE0F901F9018951C
:100D60008081F4CF1F920F920FB60F9211242F9310
:100D70003F938F939F93AF93BF9380910A0290917B
:100D80000B02A0910C02B0910D023091D10123E031
:100D9000230F2D3758F50196A11DB11D2093D101C8
:100DA00080930A0290930B02A0930C02B0930D0261
:100DB0008091D2019091D301A091D401B091D5013D
:100DC0000196A11DB11D8093D2019093D301A093F0
:100DD000D401B093D501BF91AF919F918F913F9175
:100DE0002F910F900FBE0F901F90189526E8230F9C
:100DF0000296A11DB11DD2CF1F920F920FB60F9276
:100E000011242F933F934F935F936F937F938F930F
:100E10009F93AF93BF93EF93FF938091B900887F27
:100E2000803609F44AC0F0F5883209F4A5C018F5F7
:100E3000803109F499C0B8F4882309F4F5C08830EA
:100E400009F492C0FF91EF91BF91AF919F918F9163
:100E50007F916F915F914F913F912F910F900FBEB6
:100E60000F901F901895883109F486C0803251F791
:100E70008093AA0114C0803409F49BC040F48033ED
:100E8000B9F38833F9F68093AA0185ECAEC08035BA
:100E900009F483C0883509F494C0883499F60E9417
:100EA0002206D0CF883909F48AC038F5883729F06E
:100EB00050F4883611F0803729F683E08093AB0137
:100EC0001092A90155C0883809F479C0803919F009
:100ED000803809F0B7CF8091A901803208F06FC047
:100EE000E091A90181E08E0F8093A9018091BB0060
:100EF000F0E0E757FE4F80833BC0803B39F0D0F4F1
:100F0000803A09F477C0883A09F09CCF84E0809356
:100F1000AB011092880110928701F0E0E0E00995A2
:100F20008091870181110FC081E080938701109229
:100F3000670109C0803C09F4A8CF883C09F4A5CF1B
:100F4000883B09F07FCFE091880181E08E0F80938C
:100F50008801F0E0E959FE4F80818093BB009091B9
:100F600088018091870129C08091D0018093BB00C6
:100F700085EC8093BC0066CF9091CF018091CE012B
:100F8000981758F5E091CF0181E08E0F8093CF0143
:100F9000F0E0E255FE4F8081E9CFE091CF0181E0A2
:100FA0008E0F8093CF018091BB00F0E0E255FE4FA1
:100FB00080839091CF018091CE019817C8F285E887
:100FC000D8CFE091CF0181E08E0F8093CF01809147
:100FD000BB00F0E0E255FE4F80838091AD018111AE
:100FE0005ECF81E08093AC0184EA8093BC001092D4
:100FF000AB0128CF85EC8093BC001092AB018091AF
:10100000A901803230F4E091A901F0E0E757FE4FEA
:1010100010826091A90170E089E891E0F0E0E0E0E1
:1010200009951092A9010ECF1092AA0138CFEEE0D7
:10103000F2E01382128288EE93E0A0E0B0E08483B5
:101040009583A683B7832CE031E03183208325ECA0
:1010500030E03587248724EC30E03787268720EC82
:1010600030E0318B208B21EC30E0338B228B22EC73
:1010700030E0358B248B26EC30E0378B268B118EBD
:10108000128E138E148EEBEAF2E0138212828483A6
:101090009583A683B7838EE191E091838083E7EB0C
:1010A000F2E01382128280E391E09183808387E2F1
:1010B000848380E1818782E0828713860895CF93BD
:1010C000DF93CDB7DEB72A970FB6F894DEBF0FBE19
:1010D000CDBF789484B5826084BD84B5816084BDC1
:1010E00085B5826085BD85B5816085BD80916E00C6
:1010F000816080936E0010928100809181008260F7
:101100008093810080918100816080938100809133
:1011100080008160809380008091B1008460809322
:10112000B1008091B00081608093B00080917A001E
:10113000846080937A0080917A00826080937A0044
:1011400080917A00816080937A0080917A00806833
:1011500080937A001092C100E0911E02F0911F026C
:1011600082E08083E0911A02F0911B021082E091EC
:101170001C02F0911D0287E6808310922602E09106
:101180002202F091230286E08083E0912002F09118
:101190002102808180618083E0912002F091210210
:1011A000808188608083E0912002F091210280811B
:1011B00080688083E0912002F091210280818F7D00
:1011C000808382E390E0A0E0B0E0809312029093ED
:1011D0001302A0931402B0931502E1EBF0E0249106
:1011E000EDE9F0E08491882399F090E0880F991F51
:1011F000FC01EA57FF4FA591B491FC01E458FF4F61
:10120000859194918FB7F894EC91E22BEC938FBF7A
:1012100060E08DE00E948B0298E3292E91E0392E48
:101220002AE3822E21E0922E412C512C320143944C
:1012300080E0A82E80E0B82E8EE092E00E94DC01D3
:10124000181619060CF000C11E821D823A822982EE
:1012500001E010E01C830B83CE0101960E94D700B1
:10126000892B09F0F1C00E949C01FC0197FDFFC091
:101270008D32910521F0C0970A9708F0F1C0C12C7A
:10128000D12C760110E0E130F105D9F0ED32F10515
:1012900009F4EBC0CF01C0970A9798F4AAE0B0E038
:1012A000A70196010E944A0A6F01FF0FEE08FF088E
:1012B000C60ED71EE81EF91E20E3C21AD108E108A7
:1012C000F1088EE092E00E94C3000E949C01FC01A4
:1012D000C0970A97C0F2E130F105A9F2112341F05D
:1012E000F094E094D094C094C11CD11CE11CF11C7A
:1012F000C0920602D0920702E0920802F092090220
:101300001E821D829A82898281E090E09C838B8379
:10131000CE0101960E94D700009709F095C0CD2814
:10132000CE28CF2841F440920602509207026092E4
:10133000080270920902C0900602D0900702E09065
:101340000802F0900902E6EDF1E0DF0147E150E02C
:1013500097018601042E04C03595279517950795AA
:101360000A94D2F70F83188729873A87202F217094
:1013700030E02D933D934150510950F72081318148
:101380002130310501F51182108221E030E04085E5
:101390005185452B11F030E020E03187208721E096
:1013A00030E046895789452B11F030E020E0378B3B
:1013B000268B21E030E040A151A1452B11F030E017
:1013C00020E031A320A3329621E0E63EF207B1F6F9
:1013D000E6E0F2E0C12CD12C760152914291052E2B
:1013E000000C660B770B082E04C0440F551F661FB8
:1013F000771F0A94D2F7C40ED51EE61EF71E01967B
:101400008831910551F7C114D104E104F10499F533
:101410000E9472050E94670580E00E94CF0542E0AD
:1014200060E070E0CB010E94E90481E00E94CF05FA
:101430006091060270910702809108029091090262
:1014400097FF24C00E940606A114B10409F4F4CE4B
:101450000E94E801882309F4EBCE0E940000E8CE48
:101460008EE092E00E94C300FECE11E02ACFC12C94
:10147000D12C76013DCF0E9472050E94670580E065
:101480000E94CF0542E0C701B601CDCF4AE00E94DD
:10149000E904DACF0E94550AA59F900DB49F900DE4
:1014A000A49F800D911D11240895A29FB001B39FA8
:1014B000C001A39F700D811D1124911DB29F700D5D
:1014C000811D1124911D0895A1E21A2EAA1BBB1B98
:1014D000FD010DC0AA1FBB1FEE1FFF1FA217B30700
:1014E000E407F50720F0A21BB30BE40BF50B661F16
:1014F000771F881F991F1A9469F7609570958095DA
:1015000090959B01AC01BD01CF010895EE0FFF1F27
:0C1510000590F491E02D0994F894FFCFB1
:10151C000000400014005400000000001E02870070
:10152C00B4006B02DC01C3008E0100000000CF038D
:10153C00A203E60494039B039803950300000000A8
:0C154C0000068700E604E5046900660064
:00000001FF
