:020000040000FA
:100000000C945D000C9485000C9485000C94850084
:100010000C9485000C9485000C9485000C9485004C
:100020000C9485000C9485000C9485000C9485003C
:100030000C9485000C9485000C9485000C9485002C
:100040000C9414020C9485000C9484020C945E02AF
:100050000C9485000C9485000C9485000C9485000C
:100060000C9485000C9485000000000024002700FB
:100070002A0000000000250028002B0004040404CE
:100080000404040402020202020203030303030342
:10009000010204081020408001020408102001021F
:1000A00004081020000000080002010000030407FB
:1000B00000000000000000005A0411241FBECFEF12
:1000C000D8E0DEBFCDBF22E0ACE7B1E001C01D92B9
:1000D000A435B207E1F711E0A0E0B1E0E2E6F9E013
:1000E00002C005900D92AC37B107D9F710E0CDE50D
:1000F000D0E004C02197FE010E94A904CC35D107AD
:10010000C9F70E94B6020C94AF040C940000AF92A1
:10011000BF92CF92DF92EF92FF920F931F93CF93F4
:10012000DF936C017B018B01040F151FEB015E0156
:10013000AE18BF08C017D10759F06991D601ED91EB
:10014000FC910190F081E02DC6010995892B79F78A
:10015000C501DF91CF911F910F91FF90EF90DF903C
:10016000CF90BF90AF900895FC01538D448D252F03
:1001700030E0842F90E0821B930B541710F0CF9641
:10018000089501970895FC01918D828D981761F073
:10019000A28DAE0FBF2FB11D5D968C91928D9F5F8A
:1001A0009F73928F90E008958FEF9FEF0895FC0169
:1001B000918D828D981731F0828DE80FF11D858D1C
:1001C00090E008958FEF9FEF0895FC01918D228DAF
:1001D000892F90E0805C9F4F821B91098F73992734
:1001E000089587EB91E00E94E50021E0892B09F456
:1001F00020E0822F089580E090E0892B29F00E9472
:10020000F10081110C9400000895FC01A48DA80F49
:10021000B92FB11DA35ABF4F2C91848D90E0019648
:100220008F739927848FA689B7892C93A089B18968
:100230008C91837080648C93938D848D981306C009
:100240000288F389E02D80818F7D80830895EF926D
:10025000FF920F931F93CF93DF93EC0181E0888F80
:100260009B8D8C8D98131AC0E889F989808185FF50
:1002700015C09FB7F894EE89FF896083E889F989F2
:1002800080818370806480839FBF81E090E0DF91F4
:10029000CF911F910F91FF90EF900895F62E0B8D47
:1002A00010E00F5F1F4F0F731127E02E8C8D8E1102
:1002B0000CC00FB607FCFACFE889F989808185FF69
:1002C000F5CFCE010E940501F1CFEB8DEC0FFD2F94
:1002D000F11DE35AFF4FF0829FB7F8940B8FEA8924
:1002E000FB8980818062CFCFCF93DF93EC01888D33
:1002F0008823B9F0AA89BB89E889F9898C9185FDA1
:1003000003C0808186FD0DC00FB607FCF7CF8C912E
:1003100085FFF2CF808185FFEDCFCE010E940501E0
:10032000E9CFDF91CF910895FC0101900020E9F71A
:100330003197AF01481B590BBC0187EB91E00C943E
:1003400087008F929F92AF92BF920F931F93CF938C
:10035000DF93CDB7DEB7A1970FB6F894DEBF0FBE1F
:10036000CDBF19A2423008F44AE08E010F5D1F4F45
:10037000842E912CB12CA12CA50194010E948704FC
:10038000E62FB901CA01EA30F4F4E05DD801EE933A
:100390008D01232B242B252B79F790E080E01097FB
:1003A00019F0CD010E949401A1960FB6F894DEBF1A
:1003B0000FBECDBFDF91CF911F910F91BF90AF9036
:1003C0009F908F900895E95CE1CFCF92DF92EF92FA
:1003D000FF92CF93DF936B017C016DE287EB91E09D
:1003E0000E942701EC0166277727CB016C197D0954
:1003F0008E099F094AE00E94A1018C0F9D1FDF9189
:10040000CF91FF90EF90DF90CF900895CF93DF933F
:100410000E949401EC0182E191E00E9494018C0F12
:100420009D1FDF91CF9108951F920F920FB60F92EB
:1004300011242F933F938F939F93AF93BF938091FA
:10044000B3019091B401A091B501B091B601309182
:10045000B20123E0230F2D3758F50196A11DB11DE0
:100460002093B2018093B3019093B401A093B5019E
:10047000B093B6018091AE019091AF01A091B0010F
:10048000B091B1010196A11DB11D8093AE01909371
:10049000AF01A093B001B093B101BF91AF919F9113
:1004A0008F913F912F910F900FBE0F901F90189535
:1004B00026E8230F0296A11DB11DD2CF1F920F92E5
:1004C0000FB60F9211242F933F934F935F936F9327
:1004D0007F938F939F93AF93BF93EF93FF9387EB9C
:1004E00091E00E940501FF91EF91BF91AF919F9123
:1004F0008F917F916F915F914F913F912F910F90CD
:100500000FBE0F901F9018951F920F920FB60F926B
:1005100011242F938F939F93EF93FF93E091C70143
:10052000F091C8018081E091CD01F091CE0182FD72
:100530001BC090818091D0018F5F8F732091D1017A
:10054000821741F0E091D001F0E0E954FE4F958F21
:100550008093D001FF91EF919F918F912F910F90F8
:100560000FBE0F901F9018958081F4CF789484B5BA
:10057000826084BD84B5816084BD85B5826085BD9F
:1005800085B5816085BD80916E00816080936E002D
:10059000109281008091810082608093810080911F
:1005A00081008160809381008091800081608093D0
:1005B00080008091B10084608093B1008091B00090
:1005C00081608093B00080917A00846080937A008B
:1005D00080917A00826080937A0080917A008160B5
:1005E00080937A0080917A00806880937A001092DC
:1005F000C100E091C701F091C80182E08083E091E1
:10060000C301F091C4011082E091C501F091C601CF
:100610008FEC80831092CF01E091CB01F091CC015F
:1006200086E08083E091C901F091CA0180818061F8
:100630008083E091C901F091CA0180818860808344
:10064000E091C901F091CA01808180688083E091C6
:10065000C901F091CA0180818F7D808382E390E09F
:10066000A0E0B0E08093BB019093BC01A093BD01DA
:10067000B093BE014DE950E0FA01649189E890E041
:10068000FC012491222399F030E0220F331FF9015D
:10069000E859FF4FA591B491F901EE58FF4F25910C
:1006A00034912FB7F8943C91632B6C932FBFE1EBFF
:1006B000F0E02491FA014491FC0194919923E1F036
:1006C000222359F0233009F4CEC008F0C1C02130F4
:1006D00009F4CFC0223009F4D0C0E92FF0E0EE0FCA
:1006E000FF1FEE58FF4FA591B4918FB7F8949C91DE
:1006F000409549234C938FBFCDECD0E000E010E053
:10070000D093AD01C093AC01ECE7F1E0DF0127E04D
:1007100030E090E080E0883091050CF0BBC0AE0185
:10072000022E02C0559547950A94E2F7417055276D
:1007300011965C934E93215031090196129688319F
:10074000910549F780819181019701F5118210820D
:1007500081E090E020853185232B11F090E080E04E
:100760009187808781E090E026893789232B11F0DB
:1007700090E080E0978B868B81E090E020A131A112
:10078000232B11F090E080E091A380A3329681E0CA
:10079000EC38F807B9F6ECEAF1E0812C912C540121
:1007A00030E020E092918291092E000CAA0BBB0B45
:1007B000022E04C0880F991FAA1FBB1F0A94D2F7EC
:1007C000880E991EAA1EBB1E2F5F3F4F2831310590
:1007D00049F785E191E00E940602B7FE5FC0C501BE
:1007E000B4010E94E50182E191E00E94940185E25A
:1007F00091E00E940602C090AC01D090AD010D2C9A
:10080000000CEE08FF087601DD24CC24C80CD91CAE
:10081000EA1CFB1C85E491E00E940602F7FE44C03E
:10082000C701B6010E94E50182E191E00E949401B6
:1008300088E591E00E9406020115110509F460CFD8
:100840000E94F100882309F45BCF0E94000058CF7A
:100850002730B1F02830D1F0243009F03ECF80911C
:1008600080008F7D03C0809180008F77809380000F
:1008700034CF84B58F7784BD30CF84B58F7DFBCFE7
:100880008091B0008F778093B00027CF8091B00027
:100890008F7DF9CF11961C921E924FCF4AE0C50171
:1008A000B4010E94A1019FCF4AE0C701B6010E9496
:1008B000A101BACFE7EBF1E01382128288EE93E058
:1008C000A0E0B0E084839583A683B78384E091E0C1
:1008D0009183808385EC90E09587848784EC90E019
:1008E0009787868780EC90E0918B808B81EC90E0FD
:1008F000938B828B82EC90E0958B848B86EC90E0DE
:10090000978B868B118E128E138E148E0895A1E212
:100910001A2EAA1BBB1BFD010DC0AA1FBB1FEE1F79
:10092000FF1FA217B307E407F50720F0A21BB30BC4
:10093000E40BF50B661F771F881F991F1A9469F740
:1009400060957095809590959B01AC01BD01CF019C
:100950000895EE0FFF1F0590F491E02D0994F8948F
:10096000FFCF0000000027018700B4007401E500FC
:10097000C300D7000D0A00546865206372632076B7
:10098000616C7565733A0054686520637263206317
:10099000616C63756C6174696F6E20697320666940
:1009A0006E69736865640054686520747864617466
:1009B000612076616C7565733A00546865207478BF
:1009C000646174612063616C63756C6174696F6EDE
:0E09D0002069732066696E69736865640000B3
:107E0000112484B714BE81FFF0D085E080938100F7
:107E100082E08093C00088E18093C10086E0809377
:107E2000C20080E18093C4008EE0C9D0259A86E02C
:107E300020E33CEF91E0309385002093840096BBD3
:107E4000B09BFECF1D9AA8958150A9F7CC24DD24C4
:107E500088248394B5E0AB2EA1E19A2EF3E0BF2EE7
:107E6000A2D0813461F49FD0082FAFD0023811F036
:107E7000013811F484E001C083E08DD089C08234E0
:107E800011F484E103C0853419F485E0A6D080C0E4
:107E9000853579F488D0E82EFF2485D0082F10E0AE
:107EA000102F00270E291F29000F111F8ED06801E7
:107EB0006FC0863521F484E090D080E0DECF843638
:107EC00009F040C070D06FD0082F6DD080E0C81688
:107ED00080E7D80618F4F601B7BEE895C0E0D1E017
:107EE00062D089930C17E1F7F0E0CF16F0E7DF06D8
:107EF00018F0F601B7BEE89568D007B600FCFDCFD4
:107F0000A601A0E0B1E02C9130E011968C91119780
:107F100090E0982F8827822B932B1296FA010C0160
:107F200087BEE89511244E5F5F4FF1E0A038BF0790
:107F300051F7F601A7BEE89507B600FCFDCF97BE46
:107F4000E89526C08437B1F42ED02DD0F82E2BD052
:107F50003CD0F601EF2C8F010F5F1F4F84911BD097
:107F6000EA94F801C1F70894C11CD11CFA94CF0C13
:107F7000D11C0EC0853739F428D08EE10CD085E9AC
:107F80000AD08FE07ACF813511F488E018D01DD067
:107F900080E101D065CF982F8091C00085FFFCCF94
:107FA0009093C60008958091C00087FFFCCF809118
:107FB000C00084FD01C0A8958091C6000895E0E648
:107FC000F0E098E1908380830895EDDF803219F02E
:107FD00088E0F5DFFFCF84E1DECF1F93182FE3DFCA
:107FE0001150E9F7F2DF1F91089580E0E8DFEE27F6
:047FF000FF270994CA
:027FFE00040479
:00000001FF
