:100000000C9458000C9480000C9480000C94800098
:100010000C9480000C9480000C9480000C94800060
:100020000C9480000C9480000C9480000C94800050
:100030000C9480000C9480000C9480000C94800040
:100040000C9478050C9480000C9446050C942005C3
:100050000C9480000C9480000C9480000C94800020
:100060000C94C2050C9480000000000025002800BC
:100070002B00040404040404040402020202020229
:10008000030303030303010204081020408001025C
:1000900004081020010204081020000000080002DB
:1000A0000100000304070000000000000000DD065E
:1000B00011241FBECFEFD8E0DEBFCDBF11E0A0E01E
:1000C000B1E0EEEFF1E102C005900D92A634B10768
:1000D000D9F722E0A6E4B1E001C01D92A939B20728
:1000E000E1F710E0C8E5D0E004C02197FE010E94CE
:1000F000F708C735D107C9F70E9425070C94FD08FA
:100100000C940000AF92BF92CF92DF92EF92FF92D9
:100110000F931F93CF93DF936C017B018B01040F2F
:10012000151FEB015E01AE18BF08C017D10759F0CB
:100130006991D601ED91FC910190F081E02DC6010D
:100140000995892B79F7C501DF91CF911F910F9107
:10015000FF90EF90DF90CF90BF90AF900895FC019B
:10016000538D448D252F30E0842F90E0821B930B1C
:10017000541710F0CF96089501970895FC01918DC2
:10018000828D981761F0A28DAE0FBF2FB11D5D96C5
:100190008C91928D9F5F9F73928F90E008958FEF67
:1001A0009FEF0895FC01918D828D981731F0828D1B
:1001B000E80FF11D858D90E008958FEF9FEF089572
:1001C000FC01918D228D892F90E0805C9F4F821BD6
:1001D00091098F739927089584EE91E00E94E000C1
:1001E00021E0892B09F420E0822F089580E090E03F
:1001F000892B29F00E94EC0081110C9400000895D5
:10020000FC01A48DA80FB92FB11DA35ABF4F2C918B
:10021000848D90E001968F739927848FA689B78982
:100220002C93A089B1898C91837080648C93938D79
:10023000848D981306C00288F389E02D80818F7D1C
:1002400080830895EF92FF920F931F93CF93DF93D4
:10025000EC0181E0888F9B8D8C8D98131AC0E88902
:10026000F989808185FF15C09FB7F894EE89FF89D1
:100270006083E889F98980818370806480839FBF6F
:1002800081E090E0DF91CF911F910F91FF90EF906F
:100290000895F62E0B8D10E00F5F1F4F0F7311277F
:1002A000E02E8C8D8E110CC00FB607FCFACFE889BA
:1002B000F989808185FFF5CFCE010E940001F1CF41
:1002C000EB8DEC0FFD2FF11DE35AFF4FF0829FB72E
:1002D000F8940B8FEA89FB8980818062CFCFCF931E
:1002E000DF93EC01888D8823B9F0AA89BB89E8895E
:1002F000F9898C9185FD03C0808186FD0DC00FB604
:1003000007FCF7CF8C9185FFF2CF808185FFEDCF81
:10031000CE010E940001E9CFDF91CF91089590E0D6
:10032000FC01E656FF4F2491FC01EA57FF4F349140
:10033000FC01EE58FF4FE491EE23C9F0222339F07F
:10034000233001F1A8F4213019F1223029F1F0E035
:10035000EE0FFF1FE859FF4FA591B4918FB7F894A6
:10036000EC91611126C030953E233C938FBF0895D8
:100370002730A9F02830C9F0243049F78091800057
:100380008F7D03C0809180008F7780938000DFCFC6
:1003900084B58F7784BDDBCF84B58F7DFBCF809113
:1003A000B0008F778093B000D2CF8091B0008F7D66
:1003B000F9CF3E2BDACF3FB7F8948091E0019091CE
:1003C000E101A091E201B091E30126B5A89B05C02F
:1003D0002F3F19F00196A11DB11D3FBFBA2FA92FC4
:1003E000982F8827BC01CD01620F711D811D911DC1
:1003F00042E0660F771F881F991F4A95D1F708952D
:100400008F929F92AF92BF92CF92DF92EF92FF9224
:100410004B015C010E94DB016B017C010E94DB014E
:100420006C197D098E099F09683E7340810591050D
:10043000A8F321E0821A9108A108B10888EEC80E3D
:1004400083E0D81EE11CF11C81149104A104B104C5
:1004500029F7FF90EF90DF90CF90BF90AF909F90E3
:100460008F9008951F93CF93DF93C1E0C0937001E5
:10047000882399F1D091B8001091BA008091BC0006
:100480008A7B8093BC0060E082E10E948F0160E083
:1004900083E10E948F011092B501C093B7011092C1
:1004A000B60161E082E10E948F0161E083E10E9478
:1004B0008F018091B9008E7F8093B9008091B9003F
:1004C0008D7F8093B90088E48093B80085E48093A1
:1004D000BC001093BA00D093B800DF91CF911F9168
:1004E000089520919101260F3327331F21323105C2
:1004F000ECF42091B501FC0190E080E0243069F03B
:1005000082E00895A09191012191AC014F585E4F76
:10051000A40FB52FB11D2C930196861798F38091E7
:100520009101680F6093910180E0089581E0089542
:1005300008958FEF9FEF08958FEF9FEF08958091BB
:100540006A0190E09195819591090895CF92DF928B
:10055000EF92FF920F931F93CF93DF937C01CB0118
:100560008A0120916901222389F0EB016B01C40EFD
:10057000D51ECC15DD0569F06991D701ED91FC918F
:100580000190F081E02DC7010995F3CF642F0E94FF
:100590007102C801DF91CF911F910F91FF90EF90F1
:1005A000DF90CF900895CF93DF931F92CDB7DEB742
:1005B0006983209169012223F9F02091680120329A
:1005C00058F021E030E0FC013383228390E080E0AA
:1005D0000F90DF91CF91089580916701E82FF0E0AF
:1005E000E95BFE4F998190838F5F809367018093D1
:1005F000680181E090E0ECCF61E0CE0101960E94BD
:100600007102F7CFCF92DF92EF92FF920F931F9379
:10061000CF93DF93FC01C48121E020936901C09353
:10062000460110926701109268018385682B81E86A
:1006300092E00E94D302D0916801D13208F092C0BA
:100640000E94DB016B017C018091B501811165C0C5
:1006500082E08093B50181E08093B7018FEF8093B2
:10066000B4011092D901D093D801A7E4B1E0E8EB2E
:10067000F1E080E0D81385C01092DA018091DA01B0
:10068000CC0FC82BC093DA018091B601813009F0FC
:100690007CC01092B6010E94DB016B017C0180914D
:1006A000DA018093BB0080916C0190916D01A09163
:1006B0006E01B0916F01892B8A2B8B2B99F00E94D0
:1006C000DB0100916C0110916D0120916E01309160
:1006D0006F016C197D098E099F09061717072807F6
:1006E0003907E0F18091BC0083FDD9CF85EC809380
:1006F000BC000E94DB016B017C018091B50182305E
:1007000009F445C08091B4018F3F61F18091B4013B
:10071000803241F18091B40125C080916C019091AB
:100720006D01A0916E01B0916F01892B8A2B8B2BEB
:1007300009F48ACF0E94DB0100916C0110916D01D8
:1007400020916E0130916F016C197D098E099F090E
:10075000061717072807390708F076CF80916B0135
:100760000E94320210926701109268011092690192
:10077000DF91CF911F910F91FF90EF90DF90CF907D
:1007800008959D9191938F5F75CF85EEB0CF809145
:100790006C0190916D01A0916E01B0916F01892B58
:1007A0008A2B8B2B09F4A9CF0E94DB0100916C01ED
:1007B00010916D0120916E0130916F016C197D09CE
:1007C0008E099F09061717072807390708F095CFE4
:1007D000C5CF089590E080E008950F931F93CF93C5
:1007E0008C01C62F0E9402036C2F6460C8010E9416
:1007F00002036C2F6B7FC8010E94020383EC90E020
:100800000197F1F7CF911F910F9108950F931F93C7
:10081000CF93DF938C01D62FC42F607F642B0E946F
:10082000ED0380E1D89FB00111246C2BC801DF914A
:10083000CF911F910F910C94ED03CF93DF93CDB720
:10084000DEB728970FB6F894DEBF0FBECDBF98E095
:10085000E0E0F1E0DE01119601900D929A95E1F74A
:1008600090919502981708F48FEF90E0880F991FE8
:1008700021E030E02C0F3D1F820F931FFC016081AF
:10088000606840E08DE892E028960FB6F894DEBFED
:100890000FBECDBFDF91CF910C94060441E00E94C2
:1008A000060481E090E00895FB0101900020E9F743
:1008B0003197AF01461B570BDC01ED91FC91028093
:1008C000F381E02D09944F925F926F927F92AF92E5
:1008D000BF92CF92DF92EF92FF920F931F93CF932D
:1008E000DF93CDB7DEB7A1970FB6F894DEBF0FBE8A
:1008F000CDBF5C016A017B01F7FE47C0DC01ED91D1
:10090000FC910190F081E02D6DE209958C01222788
:100910003327A9012C193D094E095F0919A2FE01CF
:10092000B1967F019AE0492E512C612C712CCA019D
:10093000B901A30192010E94D508605DD7016E93B1
:100940007D01211531054105510589F790E080E0D1
:10095000109721F0BD01C5010E945404800F911F22
:10096000A1960FB6F894DEBF0FBECDBFDF91CF9139
:100970001F910F91FF90EF90DF90CF90BF90AF90BD
:100980007F906F905F904F900895AB01960119A2F0
:100990008E010F5D1F4F8AE0C82ED12CE12CF12C67
:1009A000CA01B901A70196010E94D508605DF8014E
:1009B00062938F01211531054105510589F790E0BA
:1009C00080E0309769F2BF01C5010E945404C8CF8E
:1009D00085ED8093BC0080916C0190916D01A09198
:1009E0006E01B0916F010796A11DB11D23E0B69570
:1009F000A795979587952A95D1F72091BC0024FD5E
:100A000003C01092B501089540916C0150916D01A1
:100A100060916E0170916F01452B462B472B69F356
:100A20000097A105B10541F025E32A95F1F70000F3
:100A30000197A109B109E1CF80916B010C943202B9
:100A40001F920F920FB60F9211242F933F934F9343
:100A50005F936F937F938F939F93AF93BF93EF9326
:100A6000FF9384EE91E00E940001FF91EF91BF910E
:100A7000AF919F918F917F916F915F914F913F9136
:100A80002F910F900FBE0F901F9018951F920F92ED
:100A90000FB60F9211242F938F939F93EF93FF9391
:100AA000E091F401F091F5018081E091FA01F0917B
:100AB000FB0182FD1BC090818091FD018F5F8F73D0
:100AC0002091FE01821741F0E091FD01F0E0EC5130
:100AD000FE4F958F8093FD01FF91EF919F918F9134
:100AE0002F910F900FBE0F901F9018958081F4CF1B
:100AF0001F920F920FB60F9211242F933F938F9353
:100B00009F93AF93BF938091DC019091DD01A09101
:100B1000DE01B091DF013091DB0123E0230F2D379F
:100B200058F50196A11DB11D2093DB018093DC01D6
:100B30009093DD01A093DE01B093DF018091E0018D
:100B40009091E101A091E201B091E3010196A11D14
:100B5000B11D8093E0019093E101A093E201B09375
:100B6000E301BF91AF919F918F913F912F910F9092
:100B70000FBE0F901F90189526E8230F0296A11D17
:100B8000B11DD2CF1F920F920FB60F9211242F9347
:100B90003F934F935F936F937F938F939F93AF9305
:100BA000BF93EF93FF938091B900887F803609F45B
:100BB0004AC0F0F5883209F4A5C018F5803109F46F
:100BC00099C0B8F4882309F4F5C0883009F492C0BC
:100BD000FF91EF91BF91AF919F918F917F916F9115
:100BE0005F914F913F912F910F900FBE0F901F90EB
:100BF0001895883109F486C0803251F78093B4018A
:100C000014C0803409F49BC040F48033B9F38833B6
:100C1000F9F68093B40185ECAEC0803509F483C049
:100C2000883509F494C0883499F60E94E804D0CF3E
:100C3000883909F48AC038F5883729F050F48836A5
:100C400011F0803729F683E08093B5011092B3014B
:100C500055C0883809F479C0803919F0803809F016
:100C6000B7CF8091B301803208F06FC0E091B3013B
:100C700081E08E0F8093B3018091BB00F0E0ED56D0
:100C8000FE4F80833BC0803B39F0D0F4803A09F4BA
:100C900077C0883A09F09CCF84E08093B501109228
:100CA000920110929101F0E0E0E0099580919101AC
:100CB00081110FC081E0809391011092710109C0F0
:100CC000803C09F4A8CF883C09F4A5CF883B09F003
:100CD0007FCFE091920181E08E0F80939201F0E04E
:100CE000EF58FE4F80818093BB00909192018091DC
:100CF000910129C08091DA018093BB0085EC80933B
:100D0000BC0066CF9091D9018091D801981758F511
:100D1000E091D90181E08E0F8093D901F0E0E85491
:100D2000FE4F8081E9CFE091D90181E08E0F809361
:100D3000D9018091BB00F0E0E854FE4F8083909190
:100D4000D9018091D8019817C8F285E8D8CFE091F1
:100D5000D90181E08E0F8093D9018091BB00F0E032
:100D6000E854FE4F80838091B70181115ECF81E00E
:100D70008093B60184EA8093BC001092B50128CF1D
:100D800085EC8093BC001092B5018091B301803254
:100D900030F4E091B301F0E0ED56FE4F1082609127
:100DA000B30170E083E991E0F0E0E0E00995109292
:100DB000B3010ECF1092B40138CFE4EEF1E013820C
:100DC000128288EE93E0A0E0B0E084839583A6834E
:100DD000B7832CE031E03183208325EC30E0358788
:100DE000248724EC30E03787268720EC30E0318BF5
:100DF000208B21EC30E0338B228B22EC30E0358BE2
:100E0000248B26EC30E0378B268B118E128E138EBE
:100E1000148EE1E8F2E01382128284839583A68324
:100E2000B7838EE191E091838083EDE8F2E0138255
:100E3000128280E391E09183808387E2848380E162
:100E4000818782E0828713860895CF93DF93CDB7A1
:100E5000DEB7EC970FB6F894DEBF0FBECDBF789427
:100E600084B5826084BD84B5816084BD85B58260AF
:100E700085BD85B5816085BD80916E008160809360
:100E80006E001092810080918100826080938100C9
:100E900080918100816080938100809180008160D9
:100EA000809380008091B10084608093B100809134
:100EB000B00081608093B00080917A00846080935C
:100EC0007A0080917A00826080937A0080917A0023
:100ED000816080937A0080917A00806880937A00A4
:100EE0001092C100E091F401F091F50182E080835D
:100EF000E091F001F091F10186E08083E091F20150
:100F0000F091F30192E890831092FC01E091F801D6
:100F1000F091F9018083E091F601F091F701808171
:100F200080618083E091F601F091F7018081886013
:100F30008083E091F601F091F701808180688083E1
:100F4000E091F601F091F70180818F7D8083442448
:100F50004A948FE3582E612C712C9BE4292E96E441
:100F6000392E0BE31FE1FE013196DF014DE050E029
:100F700030E020E02E3031050CF013C1C301B20186
:100F8000042E04C095958795779567950A94D2F7B6
:100F9000617070E011967C936E93415051092F5F00
:100FA0003F4F12962E31310529F79F01245E3F4FA6
:100FB00080819181019701F51182108281E090E09A
:100FC00040855185452B11F090E080E09187808726
:100FD00081E090E046895789452B11F090E080E050
:100FE000978B868B81E090E040A151A1452B11F0B9
:100FF00090E080E091A380A33296E217F307C1F658
:10100000FE01FD96C12CD12C760190E080E052913A
:101010004291052E000C660B770B082E04C0440F7E
:10102000551F661F771F0A94D2F7C40ED51EE61E01
:10103000F71E01968E31910551F74601570181E067
:10104000A81A80ECB80A68E371E084EE91E00E948F
:101050005404B501A40184EE91E00E9463046AE3A4
:1010600071E084EE91E00E94540484EE91E00E94CD
:101070006F018091920288608093920292E0909337
:10108000950262E370E080E090E00E9400026091CF
:1010900098028DE892E00E94020368EE73E080E01F
:1010A00090E00E94000260E38DE892E00E94ED0370
:1010B000C1010197F1F760E38DE892E00E94ED0332
:1010C000C1010197F1F760E38DE892E00E94ED0322
:1010D00083E592E00197F1F760E28DE892E00E94EB
:1010E000ED0360919202606240E08DE892E00E9420
:1010F000060484E08093930240E06CE08DE892E087
:101100000E94060440E061E08DE892E00E9406043F
:10111000C8010197F1F792E09093940240E066E0F5
:101120008DE892E00E94060440E062E08DE892E0E3
:101130000E940604C8010197F1F740E061E08DE8E4
:1011400092E00E940604C8010197F1F780E00E9436
:101150001D046CE371E08DE892E00E945404B70135
:10116000A6018DE892E00E94630481E00E941D04C4
:1011700061E471E08DE892E00E945404B501A4019D
:101180008DE892E00E94630480E090E0892B09F4EE
:10119000EACE0E94EC00882309F4E5CE0E9400000C
:1011A000E2CE11961C921E92FACEA1E21A2EAA1B32
:1011B000BB1BFD010DC0AA1FBB1FEE1FFF1FA21707
:1011C000B307E407F50720F0A21BB30BE40BF50B04
:1011D000661F771F881F991F1A9469F7609570958D
:1011E000809590959B01AC01BD01CF010895EE0F54
:0E11F000FF1F0590F491E02D0994F894FFCFB5
:1011FE000000400014005400000000002201820094
:10120E00AF006F01E000BE00D20000000000D3026C
:10121E00A602EA0398029F029C02990200000000B7
:10122E004E048200EA03E903690066004352433D1F
:06123E000054443D0000D5
:00000001FF
