:020000040000FA
:100000000C9458000C9480000C9480000C94800098
:100010000C9480000C9480000C9480000C94800060
:100020000C9480000C9480000C9480000C94800050
:100030000C9480000C9480000C9480000C94800040
:100040000C940E050C9480000C94DC040C94B60403
:100050000C9480000C9480000C9480000C94800020
:100060000C9458050C948000000000002500280026
:100070002B00040404040404040402020202020229
:10008000030303030303010204081020408001025C
:1000900004081020010204081020000000080002DB
:1000A00001000003040700000000000000007306C8
:1000B00011241FBECFEFD8E0DEBFCDBF11E0A0E01E
:1000C000B1E0ECE9F1E102C005900D92AC33B1076B
:1000D000D9F722E0ACE3B1E001C01D92AF3BB2071B
:1000E000E1F710E0C8E5D0E004C02197FE010E94CE
:1000F000C608C735D107C9F70E94BB060C94CC08C7
:100100000C940000AF92BF92CF92DF92EF92FF92D9
:100110000F931F93CF93DF936C017B018B01040F2F
:10012000151FEB015E01AE18BF08C017D10759F0CB
:100130006991D601ED91FC910190F081E02DC6010D
:100140000995892B79F7C501DF91CF911F910F9107
:10015000FF90EF90DF90CF90BF90AF900895FC019B
:10016000538D448D252F30E0842F90E0821B930B1C
:10017000541710F0CF96089501970895FC01918DC2
:10018000828D981761F0A28DAE0FBF2FB11D5D96C5
:100190008C91928D9F5F9F73928F90E008958FEF67
:1001A0009FEF0895FC01918D828D981731F0828D1B
:1001B000E80FF11D858D90E008958FEF9FEF089572
:1001C000FC01918D228D892F90E0805C9F4F821BD6
:1001D00091098F73992708958AE092E00E94E000C8
:1001E00021E0892B09F420E0822F089580E090E03F
:1001F000892B29F00E94EC0081110C9400000895D5
:10020000FC01A48DA80FB92FB11DA35ABF4F2C918B
:10021000848D90E001968F739927848FA689B78982
:100220002C93A089B1898C91837080648C93938D79
:10023000848D981306C00288F389E02D80818F7D1C
:1002400080830895EF92FF920F931F93CF93DF93D4
:10025000EC0181E0888F9B8D8C8D98131AC0E88902
:10026000F989808185FF15C09FB7F894EE89FF89D1
:100270006083E889F98980818370806480839FBF6F
:1002800081E090E0DF91CF911F910F91FF90EF906F
:100290000895F62E0B8D10E00F5F1F4F0F7311277F
:1002A000E02E8C8D8E110CC00FB607FCFACFE889BA
:1002B000F989808185FFF5CFCE010E940001F1CF41
:1002C000EB8DEC0FFD2FF11DE35AFF4FF0829FB72E
:1002D000F8940B8FEA89FB8980818062CFCFCF931E
:1002E000DF93EC01888D8823B9F0AA89BB89E8895E
:1002F000F9898C9185FD03C0808186FD0DC00FB604
:1003000007FCF7CF8C9185FFF2CF808185FFEDCF81
:10031000CE010E940001E9CFDF91CF91089590E0D6
:10032000FC01E656FF4F2491FC01EA57FF4F349140
:10033000FC01EE58FF4FE491EE23C9F0222339F07F
:10034000233001F1A8F4213019F1223029F1F0E035
:10035000EE0FFF1FE859FF4FA591B4918FB7F894A6
:10036000EC91611126C030953E233C938FBF0895D8
:100370002730A9F02830C9F0243049F78091800057
:100380008F7D03C0809180008F7780938000DFCFC6
:1003900084B58F7784BDDBCF84B58F7DFBCF809113
:1003A000B0008F778093B000D2CF8091B0008F7D66
:1003B000F9CF3E2BDACF3FB7F8948091D6019091D8
:1003C000D701A091D801B091D90126B5A89B05C04D
:1003D0002F3F19F00196A11DB11D3FBFBA2FA92FC4
:1003E000982F8827BC01CD01620F711D811D911DC1
:1003F00042E0660F771F881F991F4A95D1F708952D
:100400008F929F92AF92BF92CF92DF92EF92FF9224
:100410004B015C010E94DB016B017C010E94DB014E
:100420006C197D098E099F09683E7340810591050D
:10043000A8F321E0821A9108A108B10888EEC80E3D
:1004400083E0D81EE11CF11C81149104A104B104C5
:1004500029F7FF90EF90DF90CF90BF90AF909F90E3
:100460008F9008951F93CF93DF93C1E0C0936601EF
:10047000882399F1D091B8001091BA008091BC0006
:100480008A7B8093BC0060E082E10E948F0160E083
:1004900083E10E948F011092AB01C093AD011092D5
:1004A000AC0161E082E10E948F0161E083E10E9482
:1004B0008F018091B9008E7F8093B9008091B9003F
:1004C0008D7F8093B90088E48093B80085E48093A1
:1004D000BC001093BA00D093B800DF91CF911F9168
:1004E000089520918701260F3327331F21323105CC
:1004F000ECF42091AB01FC0190E080E0243069F045
:1005000082E00895A09187012191AC0149595E4F85
:10051000A40FB52FB11D2C930196861798F38091E7
:100520008701680F6093870180E0089581E0089556
:1005300008958FEF9FEF08958FEF9FEF08958091BB
:10054000600190E09195819591090895CF92DF9295
:10055000EF92FF920F931F93CF93DF937C01CB0118
:100560008A0120915F01222389F0EB016B01C40E07
:10057000D51ECC15DD0569F06991D701ED91FC918F
:100580000190F081E02DC7010995F3CF642F0E94FF
:100590007102C801DF91CF911F910F91FF90EF90F1
:1005A000DF90CF900895CF93DF931F92CDB7DEB742
:1005B000698320915F012223F9F020915E012032AE
:1005C00058F021E030E0FC013383228390E080E0AA
:1005D0000F90DF91CF91089580915D01E82FF0E0B9
:1005E000E35CFE4F998190838F5F80935D018093E0
:1005F0005E0181E090E0ECCF61E0CE0101960E94C7
:100600007102F7CFCF92DF92EF92FF920F931F9379
:10061000CF93DF93FC01C48121E020935F01C0935D
:100620003C0110925D0110925E018385682B87EA80
:1006300092E00E94D302D0915E01D13208F092C0C4
:100640000E94DB016B017C018091AB01811165C0CF
:1006500082E08093AB0181E08093AD018FEF8093C6
:10066000AA011092CF01D093CE01ADE3B1E0EEEA42
:10067000F1E080E0D81385C01092D0018091D001C4
:10068000CC0FC82BC093D0018091AC01813009F010
:100690007CC01092AC010E94DB016B017C01809157
:1006A000D0018093BB008091620190916301A09181
:1006B0006401B0916501892B8A2B8B2B99F00E94E4
:1006C000DB0100916201109163012091640130917E
:1006D00065016C197D098E099F0906171707280700
:1006E0003907E0F18091BC0083FDD9CF85EC809380
:1006F000BC000E94DB016B017C018091AB01823068
:1007000009F445C08091AA018F3F61F18091AA014F
:10071000803241F18091AA0125C0809162019091BF
:100720006301A0916401B0916501892B8A2B8B2B09
:1007300009F48ACF0E94DB010091620110916301EC
:1007400020916401309165016C197D098E099F0922
:10075000061717072807390708F076CF809161013F
:100760000E94320210925D0110925E0110925F01B0
:10077000DF91CF911F910F91FF90EF90DF90CF907D
:1007800008959D9191938F5F75CF85EEB0CF809145
:10079000620190916301A0916401B0916501892B80
:1007A0008A2B8B2B09F4A9CF0E94DB0100916201F7
:1007B0001091630120916401309165016C197D09EC
:1007C0008E099F09061717072807390708F095CFE4
:1007D000C5CF089590E080E008950F931F93CF93C5
:1007E0008C01C62F0E9402036C2F6460C8010E9416
:1007F00002036C2F6B7FC8010E94020383EC90E020
:100800000197F1F7CF911F910F9108950F931F93C7
:10081000CF93DF938C01D62FC42F607F642B0E946F
:10082000ED0380E1D89FB00111246C2BC801DF914A
:10083000CF911F910F910C94ED0341E00E940604AB
:1008400081E090E00895FB0101900020E9F73197E5
:10085000AF01461B570BDC01ED91FC910280F38147
:10086000E02D09948F929F92AF92BF92EF92FF92E8
:100870000F931F93CF93DF93CDB7DEB7A1970FB63A
:10088000F894DEBF0FBECDBF7C01FA01CB0119A2E7
:10089000223008F42AE08E010F5D1F4F822E912C2A
:1008A000B12CA12CBF01A50194010E94A408F9015B
:1008B000CA016A300CF5605DD8016E938D01232B5F
:1008C000242B252B79F790E080E0109721F0BD01D3
:1008D000C7010E942304A1960FB6F894DEBF0FBE95
:1008E000CDBFDF91CF911F910F91FF90EF90BF90FF
:1008F000AF909F908F900895695CDECF85ED8093D7
:10090000BC008091620190916301A0916401B0915B
:1009100065010796A11DB11D23E0B695A795979592
:1009200087952A95D1F72091BC0024FD03C0109231
:10093000AB0108954091620150916301609164019F
:1009400070916501452B462B472B69F30097A10554
:10095000B10541F025E32A95F1F700000197A109BF
:10096000B109E1CF809161010C9432021F920F9284
:100970000FB60F9211242F933F934F935F936F9372
:100980007F938F939F93AF93BF93EF93FF938AE0EF
:1009900092E00E940001FF91EF91BF91AF919F9172
:1009A0008F917F916F915F914F913F912F910F9018
:1009B0000FBE0F901F9018951F920F920FB60F92B7
:1009C00011242F938F939F93EF93FF93E0911A023B
:1009D000F0911B028081E0912002F091210282FDC2
:1009E0001BC09081809123028F5F8F73209124021E
:1009F000821741F0E0912302F0E0E65FFD4F958F12
:100A000080932302FF91EF919F918F912F910F90EF
:100A10000FBE0F901F9018958081F4CF1F920F92F8
:100A20000FB60F9211242F933F938F939F93AF9301
:100A3000BF938091D2019091D301A091D401B09144
:100A4000D5013091D10123E0230F2D3758F50196C0
:100A5000A11DB11D2093D1018093D2019093D301A8
:100A6000A093D401B093D5018091D6019091D70184
:100A7000A091D801B091D9010196A11DB11D80931B
:100A8000D6019093D701A093D801B093D901BF911B
:100A9000AF919F918F913F912F910F900FBE0F902B
:100AA0001F90189526E8230F0296A11DB11DD2CFE5
:100AB0001F920F920FB60F9211242F933F934F93D3
:100AC0005F936F937F938F939F93AF93BF93EF93B6
:100AD000FF938091B900887F803609F44AC0F0F511
:100AE000883209F4A5C018F5803109F499C0B8F42A
:100AF000882309F4F5C0883009F492C0FF91EF9182
:100B0000BF91AF919F918F917F916F915F914F9125
:100B10003F912F910F900FBE0F901F901895883125
:100B200009F486C0803251F78093AA0114C0803442
:100B300009F49BC040F48033B9F38833F9F680930D
:100B4000AA0185ECAEC0803509F483C0883509F46C
:100B500094C0883499F60E947E04D0CF883909F475
:100B60008AC038F5883729F050F4883611F080377C
:100B700029F683E08093AB011092A90155C0883813
:100B800009F479C0803919F0803809F0B7CF809125
:100B9000A901803208F06FC0E091A90181E08E0FB9
:100BA0008093A9018091BB00F0E0E757FE4F80835E
:100BB0003BC0803B39F0D0F4803A09F477C0883AE2
:100BC00009F09CCF84E08093AB01109288011092D1
:100BD0008701F0E0E0E009958091870181110FC065
:100BE00081E0809387011092670109C0803C09F47D
:100BF000A8CF883C09F4A5CF883B09F07FCFE091CE
:100C0000880181E08E0F80938801F0E0E959FE4F62
:100C100080818093BB00909188018091870129C0D9
:100C20008091D0018093BB0085EC8093BC0066CF9F
:100C30009091CF018091CE01981758F5E091CF01A6
:100C400081E08E0F8093CF01F0E0E255FE4F80816E
:100C5000E9CFE091CF0181E08E0F8093CF018091A9
:100C6000BB00F0E0E255FE4F80839091CF01809170
:100C7000CE019817C8F285E8D8CFE091CF0181E086
:100C80008E0F8093CF018091BB00F0E0E255FE4FC4
:100C900080838091AD0181115ECF81E08093AC01B2
:100CA00084EA8093BC001092AB0128CF85EC80933E
:100CB000BC001092AB018091A901803230F4E09128
:100CC000A901F0E0E757FE4F10826091A90170E0A2
:100CD00089E891E0F0E0E0E009951092A9010ECFDB
:100CE0001092AA0138CFEAE0F2E01382128288EE75
:100CF00093E0A0E0B0E084839583A683B7832CE0E3
:100D000031E03183208325EC30E03587248724ECE3
:100D100030E03787268720EC30E0318B208B21ECC8
:100D200030E0338B228B22EC30E0358B248B26ECA9
:100D300030E0378B268B118E128E138E148EE7EADD
:100D4000F2E01382128284839583A683B7838EE1B7
:100D500091E091838083E3EBF2E01382128280E3DF
:100D600091E09183808387E2848380E1818782E0C0
:100D7000828713860895CF93DF93CDB7DEB72C9784
:100D80000FB6F894DEBF0FBECDBF789484B58260F5
:100D900084BD84B5816084BD85B5826085BD85B51F
:100DA000816085BD80916E00816080936E0010929D
:100DB0008100809181008260809381008091810018
:100DC00081608093810080918000816080938000A9
:100DD0008091B10084608093B1008091B000816007
:100DE0008093B00080917A00846080937A00809133
:100DF0007A00826080937A0080917A00816080938B
:100E00007A0080917A00806880937A001092C10005
:100E1000E0911A02F0911B0282E08083E0911602B9
:100E2000F09117021082E0911802F091190287E602
:100E3000808310922202E0911E02F0911F0286E050
:100E40008083E0911C02F0911D028081806180838B
:100E5000E0911C02F0911D02808188608083E09106
:100E60001C02F0911D02808180688083E0911C0249
:100E7000F0911D0280818F7D80833BE4232E36E438
:100E8000332E2BE3822E2FE1922EEAEDF1E0DF01EB
:100E900027E030E090E080E0883091050CF050C110
:100EA0004DEC50E0022E02C0559547950A94E2F7AA
:100EB0004170552711965C934E932150310901964C
:100EC00012968831910541F780819181019701F552
:100ED0001182108281E090E020853185232B11F072
:100EE00090E080E09187808781E090E026893789D3
:100EF000232B11F090E080E0978B868B81E090E0CF
:100F000020A131A1232B11F090E080E091A380A3D8
:100F1000329681E0EA3EF807B9F6EAE0F2E0412CC9
:100F2000512C320190E080E052914291052E000C4C
:100F3000660B770B082E04C0440F551F661F771FE2
:100F40000A94D2F7440E551E661E771E019688310C
:100F5000910551F7730162019DECE90EF11C05E06A
:100F600010E080E090E0A3E3BFEF84199509A609A3
:100F7000B70989879A87AB87BC8795E0A92EB12CE2
:100F800068E371E08AE092E00E9423042AE0B7015E
:100F9000A601F7FE0AC06DE28AE092E00E942201FB
:100FA0002AE049855A856B857C858AE092E00E941B
:100FB00032046AE371E08AE092E00E9423048AE04E
:100FC00092E00E946F016AE070E080E090E00E9491
:100FD000000291E0A91AB10899F60150110969F6C9
:100FE0008091B80288608093B80212E01093BB022F
:100FF00062E370E080E090E00E9400026091BE0237
:1010000083EB92E00E94020368EE73E080E090E0E0
:101010000E94000260E383EB92E00E94ED03C101B5
:101020000197F1F760E383EB92E00E94ED03C101C9
:101030000197F1F760E383EB92E00E94ED0383E513
:1010400092E00197F1F760E283EB92E00E94ED03FA
:101050006091B802606240E083EB92E00E94060477
:1010600084E08093B90240E06CE083EB92E00E9460
:10107000060440E061E083EB92E00E940604C401B4
:101080000197F1F71093BA0240E066E083EB92E03B
:101090000E94060440E062E083EB92E00E940604B6
:1010A000C4010197F1F740E061E083EB92E00E9418
:1010B0000604C4010197F1F788E0E0E0F1E0DE0109
:1010C000119601900D928A95E1F78091BB02E1E0C3
:1010D000811101C0EFEFF0E0EE0FFF1FA1E0B0E0E3
:1010E000AC0FBD1FEA0FFB1F6081606840E083EB1F
:1010F00092E00E9406042AE0B701A601F7FE0FC0A5
:1011000041E06DE283EB92E00E94060440E050E093
:1011100063E37FEF44195509660977092AE083EBF9
:1011200092E00E94320480E090E0892B09F4ADCE79
:101130000E94EC00882309F4A4CE0E940000A1CEF6
:1011400011961C921E92BBCEA1E21A2EAA1BBB1BAB
:10115000FD010DC0AA1FBB1FEE1FFF1FA217B30783
:10116000E407F50720F0A21BB30BE40BF50B661F99
:10117000771F881F991F1A9469F76095709580955D
:1011800090959B01AC01BD01CF010895EE0FFF1FAB
:101190000590F491E02D0994F894FFCF00004000F1
:1011A000140054000000000022018200AF006F0113
:1011B000E000BE00D20000000000D302A602EA0355
:1011C00098029F029C029902000000001D04820008
:0811D000EA03E903690066006F
:107E0000112484B714BE81FFF0D085E080938100F7
:107E100082E08093C00088E18093C10086E0809377
:107E2000C20080E18093C4008EE0C9D0259A86E02C
:107E300020E33CEF91E0309385002093840096BBD3
:107E4000B09BFECF1D9AA8958150A9F7CC24DD24C4
:107E500088248394B5E0AB2EA1E19A2EF3E0BF2EE7
:107E6000A2D0813461F49FD0082FAFD0023811F036
:107E7000013811F484E001C083E08DD089C08234E0
:107E800011F484E103C0853419F485E0A6D080C0E4
:107E9000853579F488D0E82EFF2485D0082F10E0AE
:107EA000102F00270E291F29000F111F8ED06801E7
:107EB0006FC0863521F484E090D080E0DECF843638
:107EC00009F040C070D06FD0082F6DD080E0C81688
:107ED00080E7D80618F4F601B7BEE895C0E0D1E017
:107EE00062D089930C17E1F7F0E0CF16F0E7DF06D8
:107EF00018F0F601B7BEE89568D007B600FCFDCFD4
:107F0000A601A0E0B1E02C9130E011968C91119780
:107F100090E0982F8827822B932B1296FA010C0160
:107F200087BEE89511244E5F5F4FF1E0A038BF0790
:107F300051F7F601A7BEE89507B600FCFDCF97BE46
:107F4000E89526C08437B1F42ED02DD0F82E2BD052
:107F50003CD0F601EF2C8F010F5F1F4F84911BD097
:107F6000EA94F801C1F70894C11CD11CFA94CF0C13
:107F7000D11C0EC0853739F428D08EE10CD085E9AC
:107F80000AD08FE07ACF813511F488E018D01DD067
:107F900080E101D065CF982F8091C00085FFFCCF94
:107FA0009093C60008958091C00087FFFCCF809118
:107FB000C00084FD01C0A8958091C6000895E0E648
:107FC000F0E098E1908380830895EDDF803219F02E
:107FD00088E0F5DFFFCF84E1DECF1F93182FE3DFCA
:107FE0001150E9F7F2DF1F91089580E0E8DFEE27F6
:047FF000FF270994CA
:027FFE00040479
:00000001FF
