:100000000C945D000C9485000C9485000C94850084
:100010000C9485000C9485000C9485000C9485004C
:100020000C9485000C9485000C9485000C9485003C
:100030000C9485000C9485000C9485000C9485002C
:100040000C941F060C9485000C94ED050C94C705C8
:100050000C9485000C9485000C9485000C9485000C
:100060000C9469060C948500000000080002010051
:100070000003040700000000000000000000000072
:10008000250028002B0000000000240027002A0083
:10009000040404040404040402020202020203032E
:1000A0000303030301020408102040800102040836
:1000B0001020010204081020840711241FBECFEF76
:1000C000D8E0DEBFCDBF22E0A0E5B1E001C01D92C7
:1000D000A33AB207E1F711E0A0E0B1E0E8EBF3E109
:1000E00002C005900D92A035B107D9F710E0CDE51B
:1000F000D0E004C02197FE010E94D409CC35D1077D
:10010000C9F70E94CC070C94DA090C940000AF9256
:10011000BF92CF92DF92EF92FF920F931F93CF93F4
:10012000DF936C017B018B01040F151FEB015E0156
:10013000AE18BF08C017D10759F06991D601ED91EB
:10014000FC910190F081E02DC6010995892B79F78A
:10015000C501DF91CF911F910F91FF90EF90DF903C
:10016000CF90BF90AF900895FC01538D448D252F03
:1001700030E0842F90E0821B930B541710F0CF9641
:10018000089501970895FC01918D828D981761F073
:10019000A28DAE0FBF2FB11D5D968C91928D9F5F8A
:1001A0009F73928F90E008958FEF9FEF0895FC0169
:1001B000918D828D981731F0828DE80FF11D858D1C
:1001C00090E008958FEF9FEF08952FB7F8948091F6
:1001D000EA019091EB01A091EC01B091ED012FBFEC
:1001E0008093F6019093F701A093F801B093F90181
:1001F0008EEE91E00E94D70097FF26C02FB7F894AB
:100200008091EA019091EB01A091EC01B091ED0198
:100210002FBF4091F6015091F7016091F801709164
:10022000F901841B950BA60BB70B4091F20150917D
:10023000F3016091F4017091F50184179507A60709
:10024000B707B0F28FEF9FEF0895FC01918D228DDB
:10025000892F90E0805C9F4F821B91098F739927B3
:1002600008958EEE91E00E94250121E0892B09F48A
:1002700020E0822F089580E090E0892B29F00E94F1
:10028000310181110C9400000895FC01A48DA80F88
:10029000B92FB11DA35ABF4F2C91848D90E00196C8
:1002A0008F739927848FA689B7892C93A089B189E8
:1002B0008C91837080648C93938D848D981306C089
:1002C0000288F389E02D80818F7D80830895EF92ED
:1002D000FF920F931F93CF93DF93EC0181E0888F00
:1002E0009B8D8C8D98131AC0E889F989808185FFD0
:1002F00015C09FB7F894EE89FF896083E889F98972
:1003000080818370806480839FBF81E090E0DF9173
:10031000CF911F910F91FF90EF900895F62E0B8DC6
:1003200010E00F5F1F4F0F731127E02E8C8D8E1181
:100330000CC00FB607FCFACFE889F989808185FFE8
:10034000F5CFCE010E944501F1CFEB8DEC0FFD2FD3
:10035000F11DE35AFF4FF0829FB7F8940B8FEA89A3
:10036000FB8980818062CFCFCF93DF93EC01888DB2
:100370008823B9F0AA89BB89E889F9898C9185FD20
:1003800003C0808186FD0DC00FB607FCF7CF8C91AE
:1003900085FFF2CF808185FFEDCFCE010E94450120
:1003A000E9CFDF91CF91089590E0FC01E859FF4F2C
:1003B0002491FC01EC55FF4F3491FC01E057FF4FB5
:1003C000E491EE23C9F0222339F0233001F1A8F49F
:1003D000213019F1223029F1F0E0EE0FFF1FE4582F
:1003E000FF4FA591B4918FB7F894EC91611126C09D
:1003F00030953E233C938FBF08952730A9F02830D5
:10040000C9F0243049F7809180008F7D03C080912E
:1004100080008F7780938000DFCF84B58F7784BD95
:10042000DBCF84B58F7DFBCF8091B0008F77809339
:10043000B000D2CF8091B0008F7DF9CF3E2BDACFC4
:100440003FB7F8948091E6019091E701A091E8010F
:10045000B091E90126B5A89B05C02F3F19F0019680
:10046000A11DB11D3FBFBA2FA92F982F8827BC010E
:10047000CD01620F711D811D911D42E0660F771F36
:10048000881F991F4A95D1F708951F93CF93DF9343
:10049000C1E0C0937A01882399F1D091B8001091FE
:1004A000BA008091BC008A7B8093BC0060E082E14E
:1004B0000E94D40160E083E10E94D4011092BF0148
:1004C000C093C1011092C00161E082E10E94D40199
:1004D00061E083E10E94D4018091B9008E7F809316
:1004E000B9008091B9008D7F8093B90088E4809332
:1004F000B80085E48093BC001093BA00D093B80094
:10050000DF91CF911F91089520919B01260F3327F2
:10051000331F21323105ECF42091BF01FC0190E042
:1005200080E0243069F082E00895A0919B01219140
:10053000AC0145585E4FA40FB52FB11D2C93019609
:10054000861798F380919B01680F60939B0180E070
:10055000089581E0089508958FEF9FEF08958FEF3C
:100560009FEF08958091740190E091958195910994
:100570000895CF92DF92EF92FF920F931F93CF9344
:10058000DF937C01CB018A0120917301222389F042
:10059000EB016B01C40ED51ECC15DD0569F0699128
:1005A000D701ED91FC910190F081E02DC7010995F3
:1005B000F3CF642F0E948402C801DF91CF911F9175
:1005C0000F91FF90EF90DF90CF900895CF93DF933E
:1005D0001F92CDB7DEB76983209173012223F9F012
:1005E00020917201203258F021E030E0FC01338389
:1005F000228390E080E00F90DF91CF910895809169
:100600007101E82FF0E0EF5AFE4F998190838F5FE0
:10061000809371018093720181E090E0ECCF61E002
:10062000CE0101960E948402F7CFCF92DF92EF9223
:10063000FF920F931F93CF93DF93FC01C48121E0BE
:1006400020937301C09350011092710110927201B6
:100650008385682B8BE892E00E94E602D0917201BC
:10066000D13208F092C00E9420026B017C0180917F
:10067000BF01811165C082E08093BF0181E080935A
:10068000C1018FEF8093BE011092E301D093E2018C
:10069000A1E5B1E0E2ECF1E080E0D81385C0109272
:1006A000E4018091E401CC0FC82BC093E401809158
:1006B000C001813009F07CC01092C0010E9420026C
:1006C0006B017C018091E4018093BB0080917601F5
:1006D00090917701A0917801B0917901892B8A2BB3
:1006E0008B2B99F00E9420020091760110917701E6
:1006F00020917801309179016C197D098E099F094B
:100700000617170728073907E0F18091BC0083FD21
:10071000D9CF85EC8093BC000E9420026B017C0144
:100720008091BF01823009F445C08091BE018F3FA6
:1007300061F18091BE01803241F18091BE0125C0FE
:100740008091760190917701A0917801B091790123
:10075000892B8A2B8B2B09F48ACF0E9420020091CF
:1007600076011091770120917801309179016C190F
:100770007D098E099F09061717072807390708F012
:1007800076CF809175010E944502109271011092FE
:10079000720110927301DF91CF911F910F91FF9021
:1007A000EF90DF90CF9008959D9191938F5F75CFDB
:1007B00085EEB0CF8091760190917701A09178017C
:1007C000B0917901892B8A2B8B2B09F4A9CF0E9438
:1007D00020020091760110917701209178013091EB
:1007E00079016C197D098E099F09061717072807DB
:1007F000390708F095CFC5CF089590E080E00895BF
:100800008F929F92AF92BF920F931F93CF93DF93DC
:10081000CDB7DEB7A1970FB6F894DEBF0FBECDBF40
:1008200019A2423008F44AE08E010F5D1F4F842E5A
:10083000912CB12CA12CA50194010E94B209E62FA4
:10084000B901CA01EA3044F5E05DD801EE938D01AB
:10085000232B242B252B79F790E080E0109769F06B
:10086000FD0101900020E9F73197AF014A1B5B0BB6
:10087000BD0187E992E00E948700A1960FB6F89427
:10088000DEBF0FBECDBFDF91CF911F910F91BF9003
:10089000AF909F908F900895E95CD7CF8F929F92F1
:1008A000AF92BF92CF92DF92EF92FF920F931F937E
:1008B000CF93DF93FC0101900020E9F731978F017E
:1008C000081B190B7C01D0E0C0E0A9F430E020E067
:1008D00081E0232B09F080E0DF91CF911F910F91F0
:1008E000FF90EF90DF90CF90BF90AF909F908F9050
:1008F0000895C1E0D0E02FB7F8948091EA0190917B
:10090000EB01A091EC01B091ED012FBF8093F601B6
:100910009093F701A093F801B093F9018EEE91E066
:100920000E94C30097FF54C02FB7F8948091EA014A
:100930009091EB01A091EC01B091ED012FBF40919E
:10094000F6015091F7016091F8017091F901841B53
:10095000950BA60BB70B4091F2015091F3016091FA
:10096000F4017091F50184179507A607B707B0F257
:100970002FEF3FEFADCF209709F4BDCF4F01AE0170
:100980002197D4012E914D01022E000C330B281714
:10099000390719F0209799F7AECF209709F4A9CF1E
:1009A000B7016F01CC1ADD0A30E020E0DB01AD9029
:1009B000BD01D601BD906D01AB1005C02F5F3F4F4B
:1009C0002C173D0798F3C217D307C9F6EA0193CF56
:1009D000F701EC0FFD1F2081022E000C330B2817AE
:1009E000390749F621960C171D0709F084CF6ECF01
:1009F0000F931F93CF938C01C62F64600E94150341
:100A00006C2F6B7FC8010E94150383EC90E0019767
:100A1000F1F7CF911F910F910895FF920F931F93BC
:100A2000CF93DF938C01D62FC42F862F807FF82E93
:100A3000F42A6F2DC8010E9415036F2DC8010E9472
:100A4000F80480E1D89FB0011124C62B6C2FC80197
:100A50000E9415036C2FC801DF91CF911F910F9158
:100A6000FF900C94F804CF93DF93CDB7DEB72897AF
:100A70000FB6F894DEBF0FBECDBF98E0E0E0F1E026
:100A8000DE01119601900D929A95E1F790919F02E7
:100A9000981708F48FEF90E0880F991F21E030E05D
:100AA0002C0F3D1F820F931FFC016081606840E0A6
:100AB00087E992E028960FB6F894DEBF0FBECDBF4F
:100AC000DF91CF910C940D0541E00E940D0581E06E
:100AD00090E00895CF92DF92EF92FF9297FF18C0B7
:100AE0006B017C0141E06DE287E992E00E940D0517
:100AF00066277727CB016C197D098E099F094AE08B
:100B00000E9400040196FF90EF90DF90CF9008952F
:100B10004AE0FF90EF90DF90CF900C94000485EDB9
:100B20008093BC008091760190917701A09178012B
:100B3000B09179010796A11DB11D23E0B695A79547
:100B4000979587952A95D1F72091BC0024FD03C085
:100B50001092BF0108954091760150917701609104
:100B6000780170917901452B462B472B69F300974B
:100B7000A105B10541F025E32A95F1F700000197A1
:100B8000A109B109E1CF809175010C9445021F9232
:100B90000F920FB60F9211242F933F934F935F93B1
:100BA0006F937F938F939F93AF93BF93EF93FF9335
:100BB0008EEE91E00E944501FF91EF91BF91AF91C0
:100BC0009F918F917F916F915F914F913F912F9165
:100BD0000F900FBE0F901F9018951F920F920FB697
:100BE0000F9211242F938F939F93EF93FF93E09194
:100BF000FE01F091FF018081E0910402F091050275
:100C000082FD1BC09081809107028F5F8F732091BE
:100C10000802821741F0E0910702F0E0E251FE4F36
:100C2000958F80930702FF91EF919F918F912F9164
:100C30000F900FBE0F901F9018958081F4CF1F92D8
:100C40000F920FB60F9211242F933F938F939F9380
:100C5000AF93BF938091EA019091EB01A091EC01D9
:100C6000B091ED013091E50123E0230F2D3758F5C8
:100C70000196A11DB11D2093E5018093EA01909397
:100C8000EB01A093EC01B093ED018091E60190910E
:100C9000E701A091E801B091E9010196A11DB11D04
:100CA0008093E6019093E701A093E801B093E901F6
:100CB000BF91AF919F918F913F912F910F900FBE58
:100CC0000F901F90189526E8230F0296A11DB11DC5
:100CD000D2CF1F920F920FB60F9211242F933F93F2
:100CE0004F935F936F937F938F939F93AF93BF9334
:100CF000EF93FF938091B900887F803609F44AC052
:100D0000F0F5883209F4A5C018F5803109F499C0CE
:100D1000B8F4882309F4F5C0883009F492C0FF9133
:100D2000EF91BF91AF919F918F917F916F915F9163
:100D30004F913F912F910F900FBE0F901F901895DC
:100D4000883109F486C0803251F78093BE0114C007
:100D5000803409F49BC040F48033B9F38833F9F64A
:100D60008093BE0185ECAEC0803509F483C0883520
:100D700009F494C0883499F60E948F05D0CF883941
:100D800009F48AC038F5883729F050F4883611F014
:100D9000803729F683E08093BF011092BD0155C0D2
:100DA000883809F479C0803919F0803809F0B7CF54
:100DB0008091BD01803208F06FC0E091BD0181E0FB
:100DC0008E0F8093BD018091BB00F0E0E356FE4F93
:100DD00080833BC0803B39F0D0F4803A09F477C07F
:100DE000883A09F09CCF84E08093BF0110929C0167
:100DF00010929B01F0E0E0E0099580919B01811148
:100E00000FC081E080939B0110927B0109C0803C60
:100E100009F4A8CF883C09F4A5CF883B09F07FCF1F
:100E2000E0919C0181E08E0F80939C01F0E0E558F9
:100E3000FE4F80818093BB0090919C0180919B012B
:100E400029C08091E4018093BB0085EC8093BC00B5
:100E500066CF9091E3018091E201981758F5E091F7
:100E6000E30181E08E0F8093E301F0E0EE53FE4F4B
:100E70008081E9CFE091E30181E08E0F8093E3016F
:100E80008091BB00F0E0EE53FE4F80839091E30130
:100E90008091E2019817C8F285E8D8CFE091E3018C
:100EA00081E08E0F8093E3018091BB00F0E0EE5370
:100EB000FE4F80838091C10181115ECF81E08093DC
:100EC000C00184EA8093BC001092BF0128CF85EC5A
:100ED0008093BC001092BF018091BD01803230F43C
:100EE000E091BD01F0E0E356FE4F10826091BD013C
:100EF00070E08DE991E0F0E0E0E009951092BD012D
:100F00000ECF1092BE0138CFEEEEF1E013821282C6
:100F100088EE93E0A0E0B0E084839583A683B78356
:100F20002CE031E03183208325EC30E035872487C5
:100F300024EC30E03787268720EC30E0318B208BA3
:100F400021EC30E0338B228B22EC30E0358B248B8C
:100F500026EC30E0378B268B118E128E138E148E7A
:100F6000EBE8F2E01382128284839583A683B78331
:100F70008EE191E091838083E7E9F2E013821282AF
:100F800080E391E09183808387E2848380E181879D
:100F900082E0828713860895CF93DF93CDB7DEB7C3
:100FA000EC970FB6F894DEBF0FBECDBF789484B532
:100FB000826084BD84B5816084BD85B5826085BD55
:100FC00085B5816085BD80916E00816080936E00E3
:100FD00010928100809181008260809381008091D5
:100FE0008100816080938100809180008160809386
:100FF00080008091B10084608093B1008091B00046
:1010000081608093B00080917A00846080937A0040
:1010100080917A00826080937A0080917A0081606A
:1010200080937A0080917A00806880937A00109291
:10103000C100E091FE01F091FF0182E08083E09128
:10104000FA01F091FB0186E08083E091FC01F091D0
:10105000FD0192E8908310920602E0910202F09165
:1010600003028083E0910002F0910102808180619F
:101070008083E0910002F09101028081886080838A
:10108000E0910002F0910102808180688083E0910C
:101090000002F091010280818F7D808382E390E0E5
:1010A000A0E0B0E08093F2019093F301A093F401EB
:1010B000B093F501E1EBF0E02491EDE9F0E08491EB
:1010C000882399F090E0880F991FFC01EA57FF4FA1
:1010D000A591B491FC01E458FF4F859194918FB78D
:1010E000F894EC91E22BEC938FBF60E08DE00E94CE
:1010F000D401412C512C320120E0A22E20E0B22E4E
:101100008EEE91E00E942501181619060CF00CC114
:1011100088E391E00E944E04882E882309F404C1DC
:101120000E94E500FC0197FDE1C08D32910521F0A0
:10113000C0970A9708F0D3C0C12CD12C7601912C0E
:10114000E130F105D9F0ED32F10509F4CDC0CF0160
:10115000C0970A9798F4AAE0B0E0A70196010E9410
:1011600098096F01FF0FEE08FF08C60ED71EE81E94
:10117000F91E20E3C21AD108E108F1088EEE91E0D1
:101180000E94C3000E94E500FC01C0970A97C0F2CC
:10119000E130F105A9F2992041F0F094E094D09467
:1011A000C094C11CD11CE11CF11C8AE391E00E9497
:1011B0004E04882309F4B8C0C114D104E104F10439
:1011C00021F4C12CD12C7601C394FE013196DF01AC
:1011D0008DE190E0B701A601082E04C075956795D2
:1011E000579547950A94D2F7417050E04D935D931F
:1011F000019780F79F01245E3F4F80819181019785
:1012000001F51182108281E090E040855185452BE7
:1012100011F090E080E09187808781E090E046893E
:101220005789452B11F090E080E0978B868B81E009
:1012300090E040A151A1452B11F090E080E091A3F6
:1012400080A33296E217F307C1F6FE01FD9600E097
:1012500010E0980190E080E052914291052E000C40
:10126000660B770B082E04C0440F551F661F771FAF
:101270000A94D2F7040F151F261F371F01968E31CF
:10128000910551F7012B022B032BA1F581E00E9460
:10129000330545E050E06CE371E087E992E00E949D
:1012A0008700B701992777FD9095892F0E946A05DD
:1012B00080E00E94330561E070E080E090E00E94F1
:1012C0006A0501E010E0A114B10409F419CF0E94ED
:1012D0003101882309F414CF0E94000011CF8EEE53
:1012E00091E00E94C3001CCF982C48CFC12CD12C78
:1012F00076015BCF80E00E9433054DE050E062E470
:1013000071E087E992E00E948700C301B2010E9468
:101310006A0580E00E94330560E070E0CB010E9426
:101320006A0510E000E0CFCF0130110591F7C0CF82
:101330000E94A309A59F900DB49F900DA49F800DBE
:10134000911D11240895A29FB001B39FC001A39FD6
:10135000700D811D1124911DB29F700D811D1124EE
:10136000911D0895A1E21A2EAA1BBB1BFD010DC001
:10137000AA1FBB1FEE1FFF1FA217B307E407F50745
:1013800020F0A21BB30BE40BF50B661F771F881F21
:10139000991F1A9469F760957095809590959B01B7
:1013A000AC01BD01CF010895EE0FFF1F0590F49130
:0813B000E02D0994F894FFCF31
:1013B800000040001400540000000000670187008E
:1013C800B400B4012501C300D70000000000E60204
:1013D800B902FD03AB02B202AF02AC02000000008A
:1013E80064058700FD03FC0369006600646174619D
:1013F8003A006672616D652064726F707065640092
:00000001FF
