:020000040000FA
:100000000C9462000C948A000C948A000C948A0070
:100010000C948A000C948A000C948A000C948A0038
:100020000C948A000C948A000C948A000C948A0028
:100030000C948A000C948A000C948A000C948A0018
:100040000C9449060C948A000C9417060C94F10544
:100050000C948A000C948A000C948A000C948A00F8
:100060000C948A000C948A000000000023002600F3
:10007000290000000000240027002A0000000000E2
:10008000250028002B0004040404040404040202D4
:100090000202020203030303030301020408102007
:1000A0004080010204081020010204081020000012
:1000B0000008000201000003040700000000000027
:1000C0000000930611241FBECFEFD8E0DEBFCDBFE6
:1000D00022E0AEE2B1E001C01D92A732B207E1F723
:1000E00011E0A0E0B1E0E0E8F2E102C005900D927D
:1000F000AE32B107D9F710E0C2E6D0E004C02197D4
:10010000FE010E943809C136D107C9F70E940B07CA
:100110000C943E090C940000AF92BF92CF92DF92F4
:10012000EF92FF920F931F93CF93DF936C017B01AC
:100130008B01040F151FEB015E01AE18BF08C0173D
:10014000D10759F06991D601ED91FC910190F081B0
:10015000E02DC6010995892B79F7C501DF91CF9173
:100160001F910F91FF90EF90DF90CF90BF90AF90D5
:100170000895FC01538D448D252F30E0842F90E0AD
:10018000821B930B541710F0CF9608950197089592
:10019000FC01918D828D981761F0A28DAE0FBF2F5B
:1001A000B11D5D968C91928D9F5F9F73928F90E0B1
:1001B00008958FEF9FEF08958F929F92AF92BF9215
:1001C000CF92DF92EF92FF920F931F93CF93DF9323
:1001D000DC0112962D913C91EC0101E010E0232B03
:1001E00031F590E080E0DF91CF911F910F91FF906A
:1001F000EF90DF90CF90BF90AF909F908F90089539
:1002000021153105A1F0EC80FD80A7014150510975
:100210005D834C83FB01E40FF51FE0810E2E000C83
:10022000FF0BE817F90709F442C0452B61F72FB718
:10023000F8948091670190916801A0916901B09153
:100240006A012FBF8093730190937401A09375018D
:10025000B09376018BE691E00E94C80097FF49C0F9
:100260002FB7F8948091670190916801A09169017E
:10027000B0916A012FBF4091730150917401609158
:10028000750170917601841B950BA60BB70B4091FD
:100290006F0150917001609171017091720184172A
:1002A0009507A607B707B0F28FEF9FEF9CCF4115D8
:1002B0005105E1F06B01D901A41BB50B4D01860E70
:1002C000971EF0E0E0E0D601AD906D01D401BD9045
:1002D0004D01AB1004C03196E417F507A0F3E41705
:1002E000F50709F090CFFD82EC82A1CF1D830C832E
:1002F0009ECF688179812C813D81FB01E20FF31F44
:100300004081042E000C550B8417950709F078CF17
:100310002F5F3F4F3D832C838A819B8128173907AC
:1003200009F085CF5ECFFC01918D828D981731F059
:10033000828DE80FF11D858D90E008958FEF9FEF7E
:1003400008952FB7F8948091670190916801A0916A
:100350006901B0916A012FBF80937301909374017A
:10036000A0937501B09376018BE691E00E94930112
:1003700097FF26C02FB7F89480916701909168018C
:10038000A0916901B0916A012FBF40917301509112
:1003900074016091750170917601841B950BA60B19
:1003A000B70B40916F015091700160917101709194
:1003B000720184179507A607B707B0F28FEF9FEF7A
:1003C0000895FC01918D228D892F90E0805C9F4FD4
:1003D000821B91098F73992708958BE691E00E9403
:1003E000E10121E0892B09F420E0822F089580E0CB
:1003F00090E0892B29F00E94ED0181110C940000FE
:100400000895FC01A48DA80FB92FB11DA35ABF4FA9
:100410002C91848D90E001968F739927848FA68903
:10042000B7892C93A089B1898C91837080648C9357
:10043000938D848D981306C00288F389E02D808106
:100440008F7D80830895EF92FF920F931F93CF9338
:10045000DF93EC0181E0888F9B8D8C8D98131AC0FF
:10046000E889F989808185FF15C09FB7F894EE89E6
:10047000FF896083E889F989808183708064808343
:100480009FBF81E090E0DF91CF911F910F91FF908E
:10049000EF900895F62E0B8D10E00F5F1F4F0F7336
:1004A0001127E02E8C8D8E110CC00FB607FCFACFF1
:1004B000E889F989808185FFF5CFCE010E9401028C
:1004C000F1CFEB8DEC0FFD2FF11DE35AFF4FF082C2
:1004D0009FB7F8940B8FEA89FB8980818062CFCF28
:1004E000CF93DF93EC01888D8823B9F0AA89BB896B
:1004F000E889F9898C9185FD03C0808186FD0DC056
:100500000FB607FCF7CF8C9185FFF2CF808185FF76
:10051000EDCFCE010E940102E9CFDF91CF91089586
:10052000833081F028F4813099F08230A9F0089569
:100530008730A9F08830C9F08430B1F48091800010
:100540008F7D03C0809180008F7780938000089515
:1005500084B58F7784BD089584B58F7DFBCF80915E
:10056000B0008F778093B00008958091B0008F7DA8
:10057000F9CF1F93CF93DF93282F30E0F901E25595
:10058000FF4F8491F901E656FF4FD491F901EA57E4
:10059000FF4FC491CC23A9F0162F81110E94900225
:1005A000EC2FF0E0EE0FFF1FE458FF4FA591B49140
:1005B0008FB7F894EC91111108C0D095DE23DC932D
:1005C0008FBFDF91CF911F910895DE2BF8CFCF938E
:1005D000682F617080911B020E94B90261E08091D6
:1005E0001C020E94B90260E080911D020E94B902C3
:1005F00060E080911E020E94B902C09112028091B7
:1006000013028F3F21F0909114029111C82F61E0E5
:100610008C2F0E94B90260E08C2FCF910C94B9020C
:10062000CF93DF9390E0FC01E656FF4F24918A5769
:100630009F4FFC0184918823D1F090E0880F991F8F
:10064000FC01EE58FF4FA591B491FC01E458FF4F17
:10065000C591D49161110EC09FB7F8948C91E22F8F
:10066000E0958E238C932881E223E8839FBFDF915E
:10067000CF9108958FB7F894EC91E22BEC938FBF54
:10068000F6CFDF92EF92FF920F931F93CF93DF93FA
:10069000EC01162FE42E0A858B858F3F19F09C857F
:1006A0009111082F89858F3F09F04FC0EE81FF819E
:1006B000309709F445C08C8509956E2D88850E9478
:1006C000B902612F60718B890E94B902612F60723B
:1006D0008C890E94B902612F60748D890E94B902D1
:1006E000612F60788E890E94B90261E0802F0E949C
:1006F000B90260E0802F0E94B902612F61708B897E
:100700000E94B902612F62708C890E94B902612F28
:1007100064708D890E94B902612F68708E890E9471
:10072000B90261E0802F0E94B90260E0802FDF9162
:10073000CF911F910F91FF90EF90DF900C94B90231
:100740008BEF94E00197F1F7B8CF60E08B890E94BE
:10075000100360E08C890E94100360E08D890E9484
:10076000100360E08E890E94100361E089850E9479
:10077000B90260E088850E94B90261E0802F0E9482
:10078000B9022E8930E0F901E255FF4F8491F90159
:10079000E656FF4FF490F901EA57FF4FD490DD2061
:1007A000B1F181110E949002ED2DF0E0EE0FFF1FDC
:1007B000E859FF4FA591B491EC91FE2281E009F434
:1007C00080E0F82E60E0802F0E94B90261E0802F67
:1007D0000E94B90260E0802F0E94B90281E0F81601
:1007E00009F4CBCF61E08B890E94100361E08C8912
:1007F0000E94100361E08D890E94100361E08E89E0
:100800000E94100360E089850E94B90256CFF12C46
:10081000D9CF40E00C9441030F931F93CF93DF9304
:100820008C01FC01808D841710F44FEF480FF80104
:1008300047876687108AE40FF11D818DC82FC07429
:10084000F8019585690F8F73680F6832F4F068526C
:10085000C62BD42FD270F8018485D81769F0658D26
:10086000647F6860C8010E940904F801D487658D1F
:100870006860C8010E9409046C2F6068C801DF919C
:10088000CF911F910F910C94090467FFE1CF685D30
:10089000DFCF809113028F3F31F182E08093140209
:1008A00061E088E092E00E9409041092140261E085
:1008B00088E092E00E940904809111028F3F51F478
:1008C00080910E0290910F02892B21F48BE49DE21E
:1008D0000197F1F740E060E088E092E00E940C04AC
:1008E00010921502089561E088E092E00E940904E8
:1008F000809111028F3FA1F780910E0290910F021B
:10090000892B71F78BE49DE20197F1F7E9CF1F93F3
:10091000CF93DF93C62F18E0823009F010E082E118
:100920002BE235E7F9013197F1F78150D9F760E013
:10093000809110020E94B90260E08C2F0E94B902DF
:1009400060E0809110020E94B90283E00E94E702F9
:100950008BE19EE40197F1F783E00E94E702C3E593
:10096000D2E0CE010197F1F783E00E94E702CE01C9
:100970000197F1F782E00E94E7022197F1F7612FDA
:10098000606288E092E00E94090484E0809325027E
:10099000809113028F3FD1F440E06CE088E092E058
:1009A0000E94410360912502686088E092E00E9405
:1009B00009040E94490482E08093260266E088E0F0
:1009C00092E0DF91CF911F910C940904C091140221
:1009D0001092140240E06CE088E092E00E94410333
:1009E00082E08093140240E06CE088E092E00E9494
:1009F0004103C0931402D6CFCF93C62F80931F021A
:100A000080930D026093200260930C02909121026A
:100A1000980F9093230290912202890F80932402D1
:100A2000609112028C2F0E948704609113026F3F25
:100A300061F01092230280E48093240282E080938C
:100A400014028C2FCF910C948704CF9108951F939B
:100A5000CF93DF93EC01162F8D85811103C0888918
:100A6000882329F04F856E85CE010E940C041D302D
:100A700039F01A3029F041E0612FCE010E94410384
:100A8000188A8E8599892F85911121C08F5F8E8755
:100A90001D3041F0082E000C990B3F8938171906BC
:100AA00009F02CF41E862F5F2F8781E0888B8F85BD
:100AB000082E000C990B288D2817190609F00CF444
:100AC0001F8681E090E0DF91CF911F9108958150C2
:100AD0008E871A3011F087FFEACF8F8981508E8779
:100AE000E2CF089590E080E008958F929F92AF92B8
:100AF000BF920F931F93CF93DF93CDB7DEB7A1972C
:100B00000FB6F894DEBF0FBECDBF19A2423008F475
:100B10004AE08E010F5D1F4F842E912CB12CA12C29
:100B2000A50194010E941609E62FB901CA01EA3015
:100B300044F5E05DD801EE938D01232B242B252B6A
:100B400079F790E080E0109769F0FD0101900020B6
:100B5000E9F73197AF014A1B5B0BBD0188E092E0DA
:100B60000E948C00A1960FB6F894DEBF0FBECDBFD9
:100B7000DF91CF911F910F91BF90AF909F908F9079
:100B80000895E95CD7CFCF92DF92EF92FF92CF9397
:100B9000DF936B017C016DE288E092E00E94270503
:100BA000EC0166277727CB016C197D098E099F0917
:100BB0004AE00E9475058C0F9D1FDF91CF91FF9039
:100BC000EF90DF90CF900895FC0101900020E9F7AD
:100BD0003197AF01481B590BBC0188E092E00C949F
:100BE0008C001F920F920FB60F9211242F933F93F8
:100BF0004F935F936F937F938F939F93AF93BF9325
:100C0000EF93FF938BE691E00E940102FF91EF9139
:100C1000BF91AF919F918F917F916F915F914F9114
:100C20003F912F910F900FBE0F901F9018951F921C
:100C30000F920FB60F9211242F938F939F93EF93E0
:100C4000FF93E0917B01F0917C018081E091810133
:100C5000F091820182FD1BC09081809184018F5FA1
:100C60008F7320918501821741F0E0918401F0E0BB
:100C7000E559FE4F958F80938401FF91EF919F91ED
:100C80008F912F910F900FBE0F901F90189580811C
:100C9000F4CF1F920F920FB60F9211242F933F9310
:100CA0008F939F93AF93BF93809167019091680159
:100CB000A0916901B0916A013091320123E0230FC4
:100CC0002D3758F50196A11DB11D20933201809357
:100CD000670190936801A0936901B0936A018091C4
:100CE0002E0190912F01A0913001B0913101019618
:100CF000A11DB11D80932E0190932F01A09330016F
:100D0000B0933101BF91AF919F918F913F912F91FE
:100D10000F900FBE0F901F90189526E8230F029694
:100D2000A11DB11DD2CF1F93CF93DF93EBE6F1E06E
:100D30001382128288EE93E0A0E0B0E08483958372
:100D4000A683B78384E091E09183808385EC90E073
:100D50009587848784EC90E09787868780EC90E085
:100D6000918B808B81EC90E0938B828B82EC90E076
:100D7000958B848B86EC90E0978B868B118E128EF0
:100D8000138E148EC8E0D2E01B821A8286E191E0B5
:100D9000998388838CE088871FEF19871F821E82C2
:100DA0008BE08A871B871C861D861E861F86188AF5
:100DB000198A85E08B8B84E08C8B83E08D8B82E0BD
:100DC0008E8B61E085E00E94100361E084E00E9468
:100DD000100361E083E00E94100361E082E00E9462
:100DE0001003198E80E48A8F84E18B8F84E58C8FC9
:100DF00061E088850E94100361E08A850E941003EB
:100E000061E084E10E94FC041F821E821987DF9149
:100E1000CF911F910895CF93DF93CDB7DEB72A9777
:100E20000FB6F894DEBF0FBECDBF789484B5826054
:100E300084BD84B5816084BD85B5826085BD85B57E
:100E4000816085BD80916E00816080936E001092FC
:100E50008100809181008260809381008091810077
:100E60008160809381008091800081608093800008
:100E70008091B10084608093B1008091B000816066
:100E80008093B00080917A00846080937A00809192
:100E90007A00826080937A0080917A0081608093EA
:100EA0007A0080917A00806880937A001092C10065
:100EB000E0917B01F0917C0182E08083E0917701F9
:100EC000F09178011082E0917901F0917A0187E642
:100ED000808310928301E0917F01F091800186E090
:100EE0008083E0917D01F0917E018081806180832B
:100EF000E0917D01F0917E01808188608083E091A6
:100F00007D01F0917E01808180688083E0917D0188
:100F1000F0917E0180818F7D808382E390E0A0E06C
:100F2000B0E080936F0190937001A0937101B09332
:100F3000720161E08DE00E94100360E08DE00E948C
:100F4000B9024EE1242E41E0342E50E2852E51E0CC
:100F5000952E412C512C3201439430E0A32E30E0E9
:100F6000B32E8BE691E00E94E101181619060CF0F1
:100F700016C11E821D823A82298201E010E01C8384
:100F80000B83CE0101960E94DC00892B09F007C17A
:100F90000E94A101FC0197FD15C18D32910521F040
:100FA000C0970A9708F007C1C12CD12C760110E038
:100FB000E130F105D9F0ED32F10509F401C1CF01BD
:100FC000C0970A9798F4AAE0B0E0A70196010E94A2
:100FD000FC086F01FF0FEE08FF08C60ED71EE81EC3
:100FE000F91E20E3C21AD108E108F1088BE691E06E
:100FF0000E94C8000E94A101FC01C0970A97C0F29C
:10100000E130F105A9F2112341F0F094E094D0947D
:10101000C094C11CD11CE11CF11CC0926301D09290
:101020006401E0926501F09266011E821D829A823F
:10103000898281E090E09C838B83CE0101960E949F
:10104000DC00009709F0ABC0CD28CE28CF2841F4B2
:101050004092630150926401609265017092660152
:10106000C0906301D0906401E0906501F09066014A
:10107000E3E3F1E0DF0147E150E097018601042E50
:1010800004C035952795179507950A94D2F70F83D5
:10109000188729873A87202F217030E02D933D93C0
:1010A0004150510950F7208131812130310501F53E
:1010B0001182108221E030E040855185452B11F0EE
:1010C00030E020E03187208721E030E046895789F1
:1010D000452B11F030E020E0378B268B21E030E00B
:1010E00040A151A1452B11F030E020E031A320A315
:1010F000329621E0E334F207B1F6E3E6F1E0C12CE9
:10110000D12C760152914291052E000C660B770B83
:10111000082E04C0440F551F661F771F0A94D2F78C
:10112000C40ED51EE61EF71E01968831910551F7B3
:1011300062E080E1C114D104E104F10409F046C089
:101140000E94FC040E94490440E060E088E092E0D4
:101150000E940C0482E291E00E94E40542E060E01B
:1011600070E0CB010E94750541E060E088E092E00C
:101170000E940C0487E291E00E94E4056091630103
:10118000709164018091650190916601BC0199277D
:1011900077FD9095892F97FF2BC00E94C305A1145E
:1011A000B10409F4DECE0E94ED01882309F4D5CE06
:1011B0000E940000D2CE8BE691E00E94C800E8CEEB
:1011C00011E014CFC12CD12C760127CF0E94FC0452
:1011D0000E94490440E060E088E092E00E940C0434
:1011E00082E291E00E94E40542E0C701B601BACF75
:1011F0004AE00E947505D3CF0E940709A59F900D74
:10120000B49F900DA49F800D911D11240895A29F5D
:10121000B001B39FC001A39F700D811D1124911DCA
:10122000B29F700D811D1124911D0895A1E21A2E07
:10123000AA1BBB1BFD010DC0AA1FBB1FEE1FFF1F7A
:10124000A217B307E407F50720F0A21BB30BE40BCA
:10125000F50B661F771F881F991F1A9469F7609511
:101260007095809590959B01AC01BD01CF010895CB
:10127000EE0FFF1F0590F491E02D0994F894FFCF35
:101280000000000023028C00B9007002E101C800D8
:1012900093010000000027058C00720571056900AC
:0E12A00066004352433A00646174613A0000F4
:107E0000112484B714BE81FFF0D085E080938100F7
:107E100082E08093C00088E18093C10086E0809377
:107E2000C20080E18093C4008EE0C9D0259A86E02C
:107E300020E33CEF91E0309385002093840096BBD3
:107E4000B09BFECF1D9AA8958150A9F7CC24DD24C4
:107E500088248394B5E0AB2EA1E19A2EF3E0BF2EE7
:107E6000A2D0813461F49FD0082FAFD0023811F036
:107E7000013811F484E001C083E08DD089C08234E0
:107E800011F484E103C0853419F485E0A6D080C0E4
:107E9000853579F488D0E82EFF2485D0082F10E0AE
:107EA000102F00270E291F29000F111F8ED06801E7
:107EB0006FC0863521F484E090D080E0DECF843638
:107EC00009F040C070D06FD0082F6DD080E0C81688
:107ED00080E7D80618F4F601B7BEE895C0E0D1E017
:107EE00062D089930C17E1F7F0E0CF16F0E7DF06D8
:107EF00018F0F601B7BEE89568D007B600FCFDCFD4
:107F0000A601A0E0B1E02C9130E011968C91119780
:107F100090E0982F8827822B932B1296FA010C0160
:107F200087BEE89511244E5F5F4FF1E0A038BF0790
:107F300051F7F601A7BEE89507B600FCFDCF97BE46
:107F4000E89526C08437B1F42ED02DD0F82E2BD052
:107F50003CD0F601EF2C8F010F5F1F4F84911BD097
:107F6000EA94F801C1F70894C11CD11CFA94CF0C13
:107F7000D11C0EC0853739F428D08EE10CD085E9AC
:107F80000AD08FE07ACF813511F488E018D01DD067
:107F900080E101D065CF982F8091C00085FFFCCF94
:107FA0009093C60008958091C00087FFFCCF809118
:107FB000C00084FD01C0A8958091C6000895E0E648
:107FC000F0E098E1908380830895EDDF803219F02E
:107FD00088E0F5DFFFCF84E1DECF1F93182FE3DFCA
:107FE0001150E9F7F2DF1F91089580E0E8DFEE27F6
:047FF000FF270994CA
:027FFE00040479
:00000001FF
